{
  "contractName": "ClientRole",
  "abi": [
    {
      "anonymous": false,
      "inputs": [
        {
          "indexed": true,
          "name": "account",
          "type": "address"
        }
      ],
      "name": "ClientAdded",
      "type": "event"
    },
    {
      "anonymous": false,
      "inputs": [
        {
          "indexed": true,
          "name": "account",
          "type": "address"
        }
      ],
      "name": "ClientRemoved",
      "type": "event"
    },
    {
      "constant": true,
      "inputs": [
        {
          "name": "account",
          "type": "address"
        }
      ],
      "name": "isClient",
      "outputs": [
        {
          "name": "",
          "type": "bool"
        }
      ],
      "payable": false,
      "stateMutability": "view",
      "type": "function"
    },
    {
      "constant": false,
      "inputs": [
        {
          "name": "account",
          "type": "address"
        }
      ],
      "name": "addClient",
      "outputs": [],
      "payable": false,
      "stateMutability": "nonpayable",
      "type": "function"
    },
    {
      "constant": false,
      "inputs": [],
      "name": "removeClient",
      "outputs": [],
      "payable": false,
      "stateMutability": "nonpayable",
      "type": "function"
    }
  ],
  "bytecode": "0x608060405234801561001057600080fd5b50610434806100206000396000f3fe608060405260043610610057576000357c0100000000000000000000000000000000000000000000000000000000900463ffffffff16806324baf3bb1461005c57806343928cfd1461007357806384b7964f146100c4575b600080fd5b34801561006857600080fd5b5061007161012d565b005b34801561007f57600080fd5b506100c26004803603602081101561009657600080fd5b81019080803573ffffffffffffffffffffffffffffffffffffffff169060200190929190505050610138565b005b3480156100d057600080fd5b50610113600480360360208110156100e757600080fd5b81019080803573ffffffffffffffffffffffffffffffffffffffff169060200190929190505050610144565b604051808215151515815260200191505060405180910390f35b61013633610161565b565b610141816101bb565b50565b600061015a82600061021590919063ffffffff16565b9050919050565b6101758160006102a990919063ffffffff16565b8073ffffffffffffffffffffffffffffffffffffffff167f71eaa696f0767f21811adef17b683cfdcea929d4543129cd018806483aedc25960405160405180910390a250565b6101cf81600061035890919063ffffffff16565b8073ffffffffffffffffffffffffffffffffffffffff167f6c713924da8f1e694559181e3497cb03c970f0f7c023d913207d0410b531741e60405160405180910390a250565b60008073ffffffffffffffffffffffffffffffffffffffff168273ffffffffffffffffffffffffffffffffffffffff161415151561025257600080fd5b8260000160008373ffffffffffffffffffffffffffffffffffffffff1673ffffffffffffffffffffffffffffffffffffffff16815260200190815260200160002060009054906101000a900460ff16905092915050565b600073ffffffffffffffffffffffffffffffffffffffff168173ffffffffffffffffffffffffffffffffffffffff16141515156102e557600080fd5b6102ef8282610215565b15156102fa57600080fd5b60008260000160008373ffffffffffffffffffffffffffffffffffffffff1673ffffffffffffffffffffffffffffffffffffffff16815260200190815260200160002060006101000a81548160ff0219169083151502179055505050565b600073ffffffffffffffffffffffffffffffffffffffff168173ffffffffffffffffffffffffffffffffffffffff161415151561039457600080fd5b61039e8282610215565b1515156103aa57600080fd5b60018260000160008373ffffffffffffffffffffffffffffffffffffffff1673ffffffffffffffffffffffffffffffffffffffff16815260200190815260200160002060006101000a81548160ff021916908315150217905550505056fea165627a7a72305820ff43cb7e27f2ac27ab519eaea7e1bf4dfca9b4776510a22bcc71a7370cafa2ed0029",
  "source": "pragma solidity >=0.4.24;\n\n// Import the library 'Roles'\nimport \"./Roles.sol\";\n\n// Define a contract 'ClientRole' to manage this role - add, remove, check\ncontract ClientRole {\n  using Roles for Roles.Role;\n\n  // Define 2 events, one for Adding, and other for Removing\n  event ClientAdded(address indexed account);\n  event ClientRemoved(address indexed account);\n\n  // Define a struct 'clients' by inheriting from 'Roles' library, struct Role\n  Roles.Role private clients;\n\n  // In the constructor make the address that deploys this contract the 1st Client\n  /*constructor() public {\n      _addClient(msg.sender);\n  }*/\n\n  // Define a modifier that checks to see if msg.sender has the appropriate role\n  modifier onlyClients() {\n      require(isClient(msg.sender));\n      _;\n  }\n\n  // Define a function 'isClient' to check this role\n  function isClient(address account) public view returns (bool) {\n      return clients.has(account);\n  }\n\n  // Define a function 'addClient' that adds this role\n  function addClient(address account) public {\n      _addClient(account);\n  }\n\n  // Define a function 'removeClient' to renounce this role\n  function removeClient() public {\n      _removeClient(msg.sender);\n  }\n\n  // Define an internal function '_addClient' to add this role, called by 'addClient'\n  function _addClient(address account) internal {\n      // \"using Roles for Roles.Role\" statement enables the following syntactic sugar\n      clients.add(account);\n      emit ClientAdded(account);\n  }\n\n  // Define an internal function '_removeClient' to remove this role, called by 'removeClient'\n  function _removeClient(address account) internal {\n      clients.remove(account);\n      emit ClientRemoved(account);\n  }\n}\n",
  "sourcePath": "/home/robert/Documents/Udacity/Blockchain/Project6/DrugSupplyChain/contracts/accesscontrol/ClientRole.sol",
  "compiler": {
    "name": "solc",
    "version": "0.5.0+commit.1d4f565a.Emscripten.clang"
  },
  "schemaVersion": "3.0.2",
  "updatedAt": "2019-04-03T23:19:24.031Z",
  "devdoc": {
    "methods": {}
  },
  "userdoc": {
    "methods": {}
  }
}