{
  "contractName": "DrugSupplyChain",
  "abi": [
    {
      "constant": false,
      "inputs": [],
      "name": "removeWholeSaleCompany",
      "outputs": [],
      "payable": false,
      "stateMutability": "nonpayable",
      "type": "function",
      "signature": "0x0170a272"
    },
    {
      "constant": true,
      "inputs": [
        {
          "name": "_name",
          "type": "string"
        },
        {
          "name": "_activeIngredient",
          "type": "string"
        }
      ],
      "name": "checkIfDrugExists",
      "outputs": [
        {
          "name": "",
          "type": "bool"
        }
      ],
      "payable": false,
      "stateMutability": "view",
      "type": "function",
      "signature": "0x0175bab1"
    },
    {
      "constant": false,
      "inputs": [],
      "name": "removeClient",
      "outputs": [],
      "payable": false,
      "stateMutability": "nonpayable",
      "type": "function",
      "signature": "0x24baf3bb"
    },
    {
      "constant": true,
      "inputs": [
        {
          "name": "",
          "type": "bytes32"
        }
      ],
      "name": "hashedCoords",
      "outputs": [
        {
          "name": "",
          "type": "uint256"
        }
      ],
      "payable": false,
      "stateMutability": "view",
      "type": "function",
      "signature": "0x3e8a1d39"
    },
    {
      "constant": false,
      "inputs": [
        {
          "name": "account",
          "type": "address"
        }
      ],
      "name": "addClient",
      "outputs": [],
      "payable": false,
      "stateMutability": "nonpayable",
      "type": "function",
      "signature": "0x43928cfd"
    },
    {
      "constant": false,
      "inputs": [
        {
          "name": "account",
          "type": "address"
        }
      ],
      "name": "addPharmaCompany",
      "outputs": [],
      "payable": false,
      "stateMutability": "nonpayable",
      "type": "function",
      "signature": "0x46a7cc38"
    },
    {
      "constant": false,
      "inputs": [
        {
          "name": "_name",
          "type": "string"
        },
        {
          "name": "_activeIngredient",
          "type": "string"
        },
        {
          "name": "_upc",
          "type": "uint256"
        }
      ],
      "name": "storeHashedCoords",
      "outputs": [],
      "payable": false,
      "stateMutability": "nonpayable",
      "type": "function",
      "signature": "0x4f13a99c"
    },
    {
      "constant": true,
      "inputs": [
        {
          "name": "account",
          "type": "address"
        }
      ],
      "name": "isWholeSaleCompany",
      "outputs": [
        {
          "name": "",
          "type": "bool"
        }
      ],
      "payable": false,
      "stateMutability": "view",
      "type": "function",
      "signature": "0x580b3ec0"
    },
    {
      "constant": false,
      "inputs": [
        {
          "name": "account",
          "type": "address"
        }
      ],
      "name": "addWholeSaleCompany",
      "outputs": [],
      "payable": false,
      "stateMutability": "nonpayable",
      "type": "function",
      "signature": "0x6cd5c75c"
    },
    {
      "constant": true,
      "inputs": [
        {
          "name": "account",
          "type": "address"
        }
      ],
      "name": "isPharmaCompany",
      "outputs": [
        {
          "name": "",
          "type": "bool"
        }
      ],
      "payable": false,
      "stateMutability": "view",
      "type": "function",
      "signature": "0x6d1aa178"
    },
    {
      "constant": false,
      "inputs": [],
      "name": "renounceOwnership",
      "outputs": [],
      "payable": false,
      "stateMutability": "nonpayable",
      "type": "function",
      "signature": "0x715018a6"
    },
    {
      "constant": true,
      "inputs": [
        {
          "name": "account",
          "type": "address"
        }
      ],
      "name": "isClient",
      "outputs": [
        {
          "name": "",
          "type": "bool"
        }
      ],
      "payable": false,
      "stateMutability": "view",
      "type": "function",
      "signature": "0x84b7964f"
    },
    {
      "constant": true,
      "inputs": [],
      "name": "owner",
      "outputs": [
        {
          "name": "",
          "type": "address"
        }
      ],
      "payable": false,
      "stateMutability": "view",
      "type": "function",
      "signature": "0x8da5cb5b"
    },
    {
      "constant": false,
      "inputs": [],
      "name": "removeMVO",
      "outputs": [],
      "payable": false,
      "stateMutability": "nonpayable",
      "type": "function",
      "signature": "0x8efc30f1"
    },
    {
      "constant": true,
      "inputs": [],
      "name": "isOwner",
      "outputs": [
        {
          "name": "",
          "type": "bool"
        }
      ],
      "payable": false,
      "stateMutability": "view",
      "type": "function",
      "signature": "0x8f32d59b"
    },
    {
      "constant": true,
      "inputs": [
        {
          "name": "",
          "type": "uint256"
        },
        {
          "name": "",
          "type": "uint256"
        }
      ],
      "name": "drugsHistory",
      "outputs": [
        {
          "name": "",
          "type": "string"
        }
      ],
      "payable": false,
      "stateMutability": "view",
      "type": "function",
      "signature": "0x977e3ea7"
    },
    {
      "constant": false,
      "inputs": [],
      "name": "removePharmaCompany",
      "outputs": [],
      "payable": false,
      "stateMutability": "nonpayable",
      "type": "function",
      "signature": "0xab595af1"
    },
    {
      "constant": false,
      "inputs": [
        {
          "name": "account",
          "type": "address"
        }
      ],
      "name": "addPharmacy",
      "outputs": [],
      "payable": false,
      "stateMutability": "nonpayable",
      "type": "function",
      "signature": "0xafd675f8"
    },
    {
      "constant": false,
      "inputs": [
        {
          "name": "account",
          "type": "address"
        }
      ],
      "name": "addMVO",
      "outputs": [],
      "payable": false,
      "stateMutability": "nonpayable",
      "type": "function",
      "signature": "0xb4be904b"
    },
    {
      "constant": true,
      "inputs": [
        {
          "name": "_a",
          "type": "string"
        },
        {
          "name": "_b",
          "type": "string"
        }
      ],
      "name": "compareStrings",
      "outputs": [
        {
          "name": "",
          "type": "bool"
        }
      ],
      "payable": false,
      "stateMutability": "pure",
      "type": "function",
      "signature": "0xbed34bba"
    },
    {
      "constant": true,
      "inputs": [
        {
          "name": "account",
          "type": "address"
        }
      ],
      "name": "isMVO",
      "outputs": [
        {
          "name": "",
          "type": "bool"
        }
      ],
      "payable": false,
      "stateMutability": "view",
      "type": "function",
      "signature": "0xcaaa540d"
    },
    {
      "constant": true,
      "inputs": [
        {
          "name": "account",
          "type": "address"
        }
      ],
      "name": "isPharmacy",
      "outputs": [
        {
          "name": "",
          "type": "bool"
        }
      ],
      "payable": false,
      "stateMutability": "view",
      "type": "function",
      "signature": "0xdfb0fda3"
    },
    {
      "constant": false,
      "inputs": [],
      "name": "removePharmacy",
      "outputs": [],
      "payable": false,
      "stateMutability": "nonpayable",
      "type": "function",
      "signature": "0xf09b07bf"
    },
    {
      "constant": false,
      "inputs": [
        {
          "name": "newOwner",
          "type": "address"
        }
      ],
      "name": "transferOwnership",
      "outputs": [],
      "payable": false,
      "stateMutability": "nonpayable",
      "type": "function",
      "signature": "0xf2fde38b"
    },
    {
      "inputs": [],
      "payable": true,
      "stateMutability": "payable",
      "type": "constructor",
      "signature": "constructor"
    },
    {
      "anonymous": false,
      "inputs": [
        {
          "indexed": false,
          "name": "upc",
          "type": "uint256"
        }
      ],
      "name": "Discovered",
      "type": "event",
      "signature": "0x24de7d10132367f8bd60f8764ffd1a55dc32cb6e2b8252f71fabcfa38967d5fb"
    },
    {
      "anonymous": false,
      "inputs": [
        {
          "indexed": false,
          "name": "upc",
          "type": "uint256"
        }
      ],
      "name": "Approved",
      "type": "event",
      "signature": "0x3ad93af63cb7967b23e4fb500b7d7d28b07516325dcf341f88bebf959d82c1cb"
    },
    {
      "anonymous": false,
      "inputs": [
        {
          "indexed": false,
          "name": "upc",
          "type": "uint256"
        }
      ],
      "name": "Produced",
      "type": "event",
      "signature": "0x9d1715437821cd9a90cba5d1a68995c308d9ad9afc754ed9a1cff429760796e6"
    },
    {
      "anonymous": false,
      "inputs": [
        {
          "indexed": false,
          "name": "upc",
          "type": "uint256"
        }
      ],
      "name": "ForWholeSale",
      "type": "event",
      "signature": "0x54e1b10ac476a1956d57e9611ef73dada96d2cceb29edcdfec7ae71e8bff828d"
    },
    {
      "anonymous": false,
      "inputs": [
        {
          "indexed": false,
          "name": "upc",
          "type": "uint256"
        }
      ],
      "name": "ForRetail",
      "type": "event",
      "signature": "0x1d0876a0345b2bbb1ad9d15d5946a1e4fdab617e80e1669e84fce7a0b191c697"
    },
    {
      "anonymous": false,
      "inputs": [
        {
          "indexed": false,
          "name": "upc",
          "type": "uint256"
        }
      ],
      "name": "ForSale",
      "type": "event",
      "signature": "0xa96ae0fc3224ebd79eebfe54bd130cc9cb94416cddd1f2386115e00b72532468"
    },
    {
      "anonymous": false,
      "inputs": [
        {
          "indexed": false,
          "name": "upc",
          "type": "uint256"
        }
      ],
      "name": "Sold",
      "type": "event",
      "signature": "0x92f64ca637d023f354075a4be751b169c1a8a9ccb6d33cdd0cb3520543995727"
    },
    {
      "anonymous": false,
      "inputs": [
        {
          "indexed": true,
          "name": "account",
          "type": "address"
        }
      ],
      "name": "ClientAdded",
      "type": "event",
      "signature": "0x6c713924da8f1e694559181e3497cb03c970f0f7c023d913207d0410b531741e"
    },
    {
      "anonymous": false,
      "inputs": [
        {
          "indexed": true,
          "name": "account",
          "type": "address"
        }
      ],
      "name": "ClientRemoved",
      "type": "event",
      "signature": "0x71eaa696f0767f21811adef17b683cfdcea929d4543129cd018806483aedc259"
    },
    {
      "anonymous": false,
      "inputs": [
        {
          "indexed": true,
          "name": "account",
          "type": "address"
        }
      ],
      "name": "WholeSaleCompanyAdded",
      "type": "event",
      "signature": "0xaf2df1859ef5c2add3a623a73a0f17cc2c499b218acc040e0c7ab2635550e011"
    },
    {
      "anonymous": false,
      "inputs": [
        {
          "indexed": true,
          "name": "account",
          "type": "address"
        }
      ],
      "name": "WholeSaleCompanyRemoved",
      "type": "event",
      "signature": "0x1f741da34e2a068ea80068f60a754dc428d290b45a213388be9a10ec7e7ad5e4"
    },
    {
      "anonymous": false,
      "inputs": [
        {
          "indexed": true,
          "name": "account",
          "type": "address"
        }
      ],
      "name": "MVOAdded",
      "type": "event",
      "signature": "0x9aa34669266507fd5d8d4825a243824d97b6a216f45692c533af9916cfcddeaf"
    },
    {
      "anonymous": false,
      "inputs": [
        {
          "indexed": true,
          "name": "account",
          "type": "address"
        }
      ],
      "name": "MVORemoved",
      "type": "event",
      "signature": "0xd20a3c15767e60ed9b3f42873f25b9a1a369f6d86df9c917feeef694a0c18932"
    },
    {
      "anonymous": false,
      "inputs": [
        {
          "indexed": true,
          "name": "account",
          "type": "address"
        }
      ],
      "name": "PharmacyAdded",
      "type": "event",
      "signature": "0xe6c049ab5a3c2ae523452b89e43795966fec2f89b7bf443d91781a7c696d3017"
    },
    {
      "anonymous": false,
      "inputs": [
        {
          "indexed": true,
          "name": "account",
          "type": "address"
        }
      ],
      "name": "PharmacyRemoved",
      "type": "event",
      "signature": "0x46520b63a5e163f23aef94d996e90fbbec9b8959d1dd37aeb9bcb5a3a20ac5c9"
    },
    {
      "anonymous": false,
      "inputs": [
        {
          "indexed": true,
          "name": "account",
          "type": "address"
        }
      ],
      "name": "PharmaAdded",
      "type": "event",
      "signature": "0x36179de14e9e7cbce2e0a64264f3eb82e80b70aac44ff098d9c6f70b1d7d6595"
    },
    {
      "anonymous": false,
      "inputs": [
        {
          "indexed": true,
          "name": "account",
          "type": "address"
        }
      ],
      "name": "PharmaRemoved",
      "type": "event",
      "signature": "0xa9a482e6375ef89327f2177c114191d0b88502ca4a7b961d211cc45786ee5107"
    },
    {
      "anonymous": false,
      "inputs": [
        {
          "indexed": true,
          "name": "oldOwner",
          "type": "address"
        },
        {
          "indexed": true,
          "name": "newOwner",
          "type": "address"
        }
      ],
      "name": "TransferOwnership",
      "type": "event",
      "signature": "0x5c486528ec3e3f0ea91181cff8116f02bfa350e03b8b6f12e00765adbb5af85c"
    },
    {
      "constant": false,
      "inputs": [],
      "name": "kill",
      "outputs": [],
      "payable": false,
      "stateMutability": "nonpayable",
      "type": "function",
      "signature": "0x41c0e1b5"
    },
    {
      "constant": true,
      "inputs": [
        {
          "name": "account",
          "type": "address"
        }
      ],
      "name": "currentRole",
      "outputs": [
        {
          "name": "",
          "type": "uint256"
        }
      ],
      "payable": false,
      "stateMutability": "view",
      "type": "function",
      "signature": "0x40bb7a03"
    },
    {
      "constant": false,
      "inputs": [
        {
          "name": "_account",
          "type": "address"
        },
        {
          "name": "_role",
          "type": "string"
        }
      ],
      "name": "signInAs",
      "outputs": [],
      "payable": false,
      "stateMutability": "nonpayable",
      "type": "function",
      "signature": "0xb7c06d0b"
    },
    {
      "constant": false,
      "inputs": [
        {
          "name": "_upc",
          "type": "uint256"
        },
        {
          "name": "_txHash",
          "type": "string"
        }
      ],
      "name": "setTxHistory",
      "outputs": [],
      "payable": false,
      "stateMutability": "nonpayable",
      "type": "function",
      "signature": "0x7bc693a8"
    },
    {
      "constant": false,
      "inputs": [
        {
          "name": "_drugName",
          "type": "string"
        },
        {
          "name": "_originPharmaName",
          "type": "string"
        },
        {
          "name": "_originPharmaInformation",
          "type": "string"
        },
        {
          "name": "_activeIngredient",
          "type": "string"
        }
      ],
      "name": "discoverDrug",
      "outputs": [],
      "payable": false,
      "stateMutability": "nonpayable",
      "type": "function",
      "signature": "0xee4fd10b"
    },
    {
      "constant": false,
      "inputs": [
        {
          "name": "_upc",
          "type": "uint256"
        }
      ],
      "name": "addUniqueID",
      "outputs": [],
      "payable": false,
      "stateMutability": "nonpayable",
      "type": "function",
      "signature": "0x7549a02c"
    },
    {
      "constant": false,
      "inputs": [
        {
          "name": "_upc",
          "type": "uint256"
        },
        {
          "name": "_price",
          "type": "uint256"
        },
        {
          "name": "_drugNotes",
          "type": "string"
        }
      ],
      "name": "produceDrug",
      "outputs": [],
      "payable": false,
      "stateMutability": "nonpayable",
      "type": "function",
      "signature": "0xb61e4a80"
    },
    {
      "constant": false,
      "inputs": [
        {
          "name": "_upc",
          "type": "uint256"
        }
      ],
      "name": "setForWholeSale",
      "outputs": [],
      "payable": false,
      "stateMutability": "nonpayable",
      "type": "function",
      "signature": "0x0e79c1bb"
    },
    {
      "constant": false,
      "inputs": [
        {
          "name": "_upc",
          "type": "uint256"
        }
      ],
      "name": "buyDrugItem",
      "outputs": [],
      "payable": true,
      "stateMutability": "payable",
      "type": "function",
      "signature": "0x8125a740"
    },
    {
      "constant": false,
      "inputs": [
        {
          "name": "_upc",
          "type": "uint256"
        },
        {
          "name": "_newPrice",
          "type": "uint256"
        }
      ],
      "name": "updatePrice",
      "outputs": [],
      "payable": false,
      "stateMutability": "nonpayable",
      "type": "function",
      "signature": "0x82367b2d"
    },
    {
      "constant": true,
      "inputs": [],
      "name": "howManyDrugs",
      "outputs": [
        {
          "name": "",
          "type": "uint256"
        }
      ],
      "payable": false,
      "stateMutability": "view",
      "type": "function",
      "signature": "0xe6ea7db5"
    },
    {
      "constant": true,
      "inputs": [
        {
          "name": "_upc",
          "type": "uint256"
        }
      ],
      "name": "getTxHistoryLength",
      "outputs": [
        {
          "name": "",
          "type": "uint256"
        }
      ],
      "payable": false,
      "stateMutability": "view",
      "type": "function",
      "signature": "0x2944f94b"
    },
    {
      "constant": true,
      "inputs": [
        {
          "name": "_upc",
          "type": "uint256"
        }
      ],
      "name": "fetchItemBufferOne",
      "outputs": [
        {
          "name": "univProdCode",
          "type": "uint256"
        },
        {
          "name": "mvoCode",
          "type": "uint256"
        },
        {
          "name": "ownerID",
          "type": "address"
        },
        {
          "name": "originPharmaCompanyID",
          "type": "address"
        },
        {
          "name": "originPharmaName",
          "type": "string"
        },
        {
          "name": "originPharmaInformation",
          "type": "string"
        },
        {
          "name": "drugName",
          "type": "string"
        }
      ],
      "payable": false,
      "stateMutability": "view",
      "type": "function",
      "signature": "0x77c45913"
    },
    {
      "constant": true,
      "inputs": [
        {
          "name": "_upc",
          "type": "uint256"
        }
      ],
      "name": "fetchItemBufferTwo",
      "outputs": [
        {
          "name": "univProdCode",
          "type": "uint256"
        },
        {
          "name": "productID",
          "type": "bytes32"
        },
        {
          "name": "drugNotes",
          "type": "string"
        },
        {
          "name": "drugPrice",
          "type": "uint256"
        },
        {
          "name": "drugState",
          "type": "uint8"
        },
        {
          "name": "MVOiD",
          "type": "address"
        },
        {
          "name": "wholesalerID",
          "type": "address"
        },
        {
          "name": "pharmacyID",
          "type": "address"
        },
        {
          "name": "clientID",
          "type": "address"
        }
      ],
      "payable": false,
      "stateMutability": "view",
      "type": "function",
      "signature": "0x66225ff9"
    }
  ],
  "bytecode": "0x608060405233600160006101000a81548173ffffffffffffffffffffffffffffffffffffffff021916908373ffffffffffffffffffffffffffffffffffffffff160217905550600160009054906101000a900473ffffffffffffffffffffffffffffffffffffffff1673ffffffffffffffffffffffffffffffffffffffff16600073ffffffffffffffffffffffffffffffffffffffff167f5c486528ec3e3f0ea91181cff8116f02bfa350e03b8b6f12e00765adbb5af85c60405160405180910390a3620000dc336200012b640100000000026401000000009004565b33600760006101000a81548173ffffffffffffffffffffffffffffffffffffffff021916908373ffffffffffffffffffffffffffffffffffffffff1602179055506001600881905550620002ed565b6200014f8160026200019564010000000002620048bc179091906401000000009004565b8073ffffffffffffffffffffffffffffffffffffffff167f36179de14e9e7cbce2e0a64264f3eb82e80b70aac44ff098d9c6f70b1d7d659560405160405180910390a250565b600073ffffffffffffffffffffffffffffffffffffffff168173ffffffffffffffffffffffffffffffffffffffff1614151515620001d257600080fd5b620001ed828262000258640100000000026401000000009004565b151515620001fa57600080fd5b60018260000160008373ffffffffffffffffffffffffffffffffffffffff1673ffffffffffffffffffffffffffffffffffffffff16815260200190815260200160002060006101000a81548160ff0219169083151502179055505050565b60008073ffffffffffffffffffffffffffffffffffffffff168273ffffffffffffffffffffffffffffffffffffffff16141515156200029657600080fd5b8260000160008373ffffffffffffffffffffffffffffffffffffffff1673ffffffffffffffffffffffffffffffffffffffff16815260200190815260200160002060009054906101000a900460ff16905092915050565b614bd480620002fd6000396000f3fe6080604052600436106101d8576000357c0100000000000000000000000000000000000000000000000000000000900463ffffffff1680630170a272146101dd5780630175bab1146101f45780630e79c1bb1461036b57806324baf3bb146103a65780632944f94b146103bd5780633e8a1d391461040c57806340bb7a031461045b57806341c0e1b5146104c057806343928cfd146104d757806346a7cc38146105285780634f13a99c14610579578063580b3ec0146106e257806366225ff91461074b5780636cd5c75c146108f55780636d1aa17814610946578063715018a6146109af5780637549a02c146109c657806377c4591314610a015780637bc693a814610c015780638125a74014610cd357806382367b2d14610d0157806384b7964f14610d465780638da5cb5b14610daf5780638efc30f114610e065780638f32d59b14610e1d578063977e3ea714610e4c578063ab595af114610f0a578063afd675f814610f21578063b4be904b14610f72578063b61e4a8014610fc3578063b7c06d0b1461109f578063bed34bba14611187578063caaa540d146112fe578063dfb0fda314611367578063e6ea7db5146113d0578063ee4fd10b146113fb578063f09b07bf14611688578063f2fde38b1461169f575b600080fd5b3480156101e957600080fd5b506101f26116f0565b005b34801561020057600080fd5b506103516004803603604081101561021757600080fd5b810190808035906020019064010000000081111561023457600080fd5b82018360208201111561024657600080fd5b8035906020019184600183028401116401000000008311171561026857600080fd5b91908080601f016020809104026020016040519081016040528093929190818152602001838380828437600081840152601f19601f820116905080830192505050505050509192919290803590602001906401000000008111156102cb57600080fd5b8201836020820111156102dd57600080fd5b803590602001918460018302840111640100000000831117156102ff57600080fd5b91908080601f016020809104026020016040519081016040528093929190818152602001838380828437600081840152601f19601f8201169050808301925050505050505091929192905050506116fb565b604051808215151515815260200191505060405180910390f35b34801561037757600080fd5b506103a46004803603602081101561038e57600080fd5b8101908080359060200190929190505050611743565b005b3480156103b257600080fd5b506103bb611877565b005b3480156103c957600080fd5b506103f6600480360360208110156103e057600080fd5b8101908080359060200190929190505050611882565b6040518082815260200191505060405180910390f35b34801561041857600080fd5b506104456004803603602081101561042f57600080fd5b81019080803590602001909291905050506118a2565b6040518082815260200191505060405180910390f35b34801561046757600080fd5b506104aa6004803603602081101561047e57600080fd5b81019080803573ffffffffffffffffffffffffffffffffffffffff1690602001909291905050506118ba565b6040518082815260200191505060405180910390f35b3480156104cc57600080fd5b506104d5611939565b005b3480156104e357600080fd5b50610526600480360360208110156104fa57600080fd5b81019080803573ffffffffffffffffffffffffffffffffffffffff1690602001909291905050506119d4565b005b34801561053457600080fd5b506105776004803603602081101561054b57600080fd5b81019080803573ffffffffffffffffffffffffffffffffffffffff1690602001909291905050506119e0565b005b34801561058557600080fd5b506106e06004803603606081101561059c57600080fd5b81019080803590602001906401000000008111156105b957600080fd5b8201836020820111156105cb57600080fd5b803590602001918460018302840111640100000000831117156105ed57600080fd5b91908080601f016020809104026020016040519081016040528093929190818152602001838380828437600081840152601f19601f8201169050808301925050505050505091929192908035906020019064010000000081111561065057600080fd5b82018360208201111561066257600080fd5b8035906020019184600183028401116401000000008311171561068457600080fd5b91908080601f016020809104026020016040519081016040528093929190818152602001838380828437600081840152601f19601f820116905080830192505050505050509192919290803590602001909291905050506119ec565b005b3480156106ee57600080fd5b506107316004803603602081101561070557600080fd5b81019080803573ffffffffffffffffffffffffffffffffffffffff169060200190929190505050611a1e565b604051808215151515815260200191505060405180910390f35b34801561075757600080fd5b506107846004803603602081101561076e57600080fd5b8101908080359060200190929190505050611a3b565b604051808a8152602001898152602001806020018881526020018760068111156107aa57fe5b60ff1681526020018673ffffffffffffffffffffffffffffffffffffffff1673ffffffffffffffffffffffffffffffffffffffff1681526020018573ffffffffffffffffffffffffffffffffffffffff1673ffffffffffffffffffffffffffffffffffffffff1681526020018473ffffffffffffffffffffffffffffffffffffffff1673ffffffffffffffffffffffffffffffffffffffff1681526020018373ffffffffffffffffffffffffffffffffffffffff1673ffffffffffffffffffffffffffffffffffffffff168152602001828103825289818151815260200191508051906020019080838360005b838110156108b2578082015181840152602081019050610897565b50505050905090810190601f1680156108df5780820380516001836020036101000a031916815260200191505b509a505050505050505050505060405180910390f35b34801561090157600080fd5b506109446004803603602081101561091857600080fd5b81019080803573ffffffffffffffffffffffffffffffffffffffff16906020019092919050505061206b565b005b34801561095257600080fd5b506109956004803603602081101561096957600080fd5b81019080803573ffffffffffffffffffffffffffffffffffffffff169060200190929190505050612077565b604051808215151515815260200191505060405180910390f35b3480156109bb57600080fd5b506109c4612094565b005b3480156109d257600080fd5b506109ff600480360360208110156109e957600080fd5b81019080803590602001909291905050506121b1565b005b348015610a0d57600080fd5b50610a3a60048036036020811015610a2457600080fd5b810190808035906020019092919050505061252e565b604051808881526020018781526020018673ffffffffffffffffffffffffffffffffffffffff1673ffffffffffffffffffffffffffffffffffffffff1681526020018573ffffffffffffffffffffffffffffffffffffffff1673ffffffffffffffffffffffffffffffffffffffff168152602001806020018060200180602001848103845287818151815260200191508051906020019080838360005b83811015610af2578082015181840152602081019050610ad7565b50505050905090810190601f168015610b1f5780820380516001836020036101000a031916815260200191505b50848103835286818151815260200191508051906020019080838360005b83811015610b58578082015181840152602081019050610b3d565b50505050905090810190601f168015610b855780820380516001836020036101000a031916815260200191505b50848103825285818151815260200191508051906020019080838360005b83811015610bbe578082015181840152602081019050610ba3565b50505050905090810190601f168015610beb5780820380516001836020036101000a031916815260200191505b509a505050505050505050505060405180910390f35b348015610c0d57600080fd5b50610cd160048036036040811015610c2457600080fd5b810190808035906020019092919080359060200190640100000000811115610c4b57600080fd5b820183602082011115610c5d57600080fd5b80359060200191846001830284011164010000000083111715610c7f57600080fd5b91908080601f016020809104026020016040519081016040528093929190818152602001838380828437600081840152601f19601f820116905080830192505050505050509192919290505050612b3e565b005b610cff60048036036020811015610ce957600080fd5b8101908080359060200190929190505050612b92565b005b348015610d0d57600080fd5b50610d4460048036036040811015610d2457600080fd5b810190808035906020019092919080359060200190929190505050612fdb565b005b348015610d5257600080fd5b50610d9560048036036020811015610d6957600080fd5b81019080803573ffffffffffffffffffffffffffffffffffffffff16906020019092919050505061309b565b604051808215151515815260200191505060405180910390f35b348015610dbb57600080fd5b50610dc46130b8565b604051808273ffffffffffffffffffffffffffffffffffffffff1673ffffffffffffffffffffffffffffffffffffffff16815260200191505060405180910390f35b348015610e1257600080fd5b50610e1b6130e2565b005b348015610e2957600080fd5b50610e326130ed565b604051808215151515815260200191505060405180910390f35b348015610e5857600080fd5b50610e8f60048036036040811015610e6f57600080fd5b810190808035906020019092919080359060200190929190505050613145565b6040518080602001828103825283818151815260200191508051906020019080838360005b83811015610ecf578082015181840152602081019050610eb4565b50505050905090810190601f168015610efc5780820380516001836020036101000a031916815260200191505b509250505060405180910390f35b348015610f1657600080fd5b50610f1f61320d565b005b348015610f2d57600080fd5b50610f7060048036036020811015610f4457600080fd5b81019080803573ffffffffffffffffffffffffffffffffffffffff169060200190929190505050613218565b005b348015610f7e57600080fd5b50610fc160048036036020811015610f9557600080fd5b81019080803573ffffffffffffffffffffffffffffffffffffffff169060200190929190505050613224565b005b348015610fcf57600080fd5b5061109d60048036036060811015610fe657600080fd5b8101908080359060200190929190803590602001909291908035906020019064010000000081111561101757600080fd5b82018360208201111561102957600080fd5b8035906020019184600183028401116401000000008311171561104b57600080fd5b91908080601f016020809104026020016040519081016040528093929190818152602001838380828437600081840152601f19601f820116905080830192505050505050509192919290505050613230565b005b3480156110ab57600080fd5b50611185600480360360408110156110c257600080fd5b81019080803573ffffffffffffffffffffffffffffffffffffffff169060200190929190803590602001906401000000008111156110ff57600080fd5b82018360208201111561111157600080fd5b8035906020019184600183028401116401000000008311171561113357600080fd5b91908080601f016020809104026020016040519081016040528093929190818152602001838380828437600081840152601f19601f8201169050808301925050505050505091929192905050506133c8565b005b34801561119357600080fd5b506112e4600480360360408110156111aa57600080fd5b81019080803590602001906401000000008111156111c757600080fd5b8201836020820111156111d957600080fd5b803590602001918460018302840111640100000000831117156111fb57600080fd5b91908080601f016020809104026020016040519081016040528093929190818152602001838380828437600081840152601f19601f8201169050808301925050505050505091929192908035906020019064010000000081111561125e57600080fd5b82018360208201111561127057600080fd5b8035906020019184600183028401116401000000008311171561129257600080fd5b91908080601f016020809104026020016040519081016040528093929190818152602001838380828437600081840152601f19601f82011690508083019250505050505050919291929050505061357d565b604051808215151515815260200191505060405180910390f35b34801561130a57600080fd5b5061134d6004803603602081101561132157600080fd5b81019080803573ffffffffffffffffffffffffffffffffffffffff169060200190929190505050613670565b604051808215151515815260200191505060405180910390f35b34801561137357600080fd5b506113b66004803603602081101561138a57600080fd5b81019080803573ffffffffffffffffffffffffffffffffffffffff16906020019092919050505061368d565b604051808215151515815260200191505060405180910390f35b3480156113dc57600080fd5b506113e56136aa565b6040518082815260200191505060405180910390f35b34801561140757600080fd5b506116866004803603608081101561141e57600080fd5b810190808035906020019064010000000081111561143b57600080fd5b82018360208201111561144d57600080fd5b8035906020019184600183028401116401000000008311171561146f57600080fd5b91908080601f016020809104026020016040519081016040528093929190818152602001838380828437600081840152601f19601f820116905080830192505050505050509192919290803590602001906401000000008111156114d257600080fd5b8201836020820111156114e457600080fd5b8035906020019184600183028401116401000000008311171561150657600080fd5b91908080601f016020809104026020016040519081016040528093929190818152602001838380828437600081840152601f19601f8201169050808301925050505050505091929192908035906020019064010000000081111561156957600080fd5b82018360208201111561157b57600080fd5b8035906020019184600183028401116401000000008311171561159d57600080fd5b91908080601f016020809104026020016040519081016040528093929190818152602001838380828437600081840152601f19601f8201169050808301925050505050505091929192908035906020019064010000000081111561160057600080fd5b82018360208201111561161257600080fd5b8035906020019184600183028401116401000000008311171561163457600080fd5b91908080601f016020809104026020016040519081016040528093929190818152602001838380828437600081840152601f19601f8201169050808301925050505050505091929192905050506136b7565b005b34801561169457600080fd5b5061169d613de6565b005b3480156116ab57600080fd5b506116ee600480360360208110156116c257600080fd5b81019080803573ffffffffffffffffffffffffffffffffffffffff169060200190929190505050613df1565b005b6116f933613e59565b565b600060606117098484613eb3565b905060008060008380519060200120815260200190815260200160002054111561173757600191505061173d565b60009150505b92915050565b806002600681111561175157fe5b60096000838152602001908152602001600020600b0160009054906101000a900460ff16600681111561178057fe5b14151561178c57600080fd5b61179533612077565b15156117a057600080fd5b60006009600084815260200190815260200160002090503373ffffffffffffffffffffffffffffffffffffffff168160020160009054906101000a900473ffffffffffffffffffffffffffffffffffffffff1673ffffffffffffffffffffffffffffffffffffffff1614151561181557600080fd5b600381600b0160006101000a81548160ff0219169083600681111561183657fe5b02179055507f54e1b10ac476a1956d57e9611ef73dada96d2cceb29edcdfec7ae71e8bff828d836040518082815260200191505060405180910390a1505050565b61188033613efa565b565b6000600a6000838152602001908152602001600020805490509050919050565b60006020528060005260406000206000915090505481565b60006118c582612077565b156118d35760009050611934565b6118dc82613670565b156118ea5760019050611934565b6118f382611a1e565b156119015760029050611934565b61190a8261368d565b156119185760039050611934565b6119218261309b565b1561192f5760049050611934565b606390505b919050565b600760009054906101000a900473ffffffffffffffffffffffffffffffffffffffff1673ffffffffffffffffffffffffffffffffffffffff163373ffffffffffffffffffffffffffffffffffffffff1614156119d2576119ba600760009054906101000a900473ffffffffffffffffffffffffffffffffffffffff16613f54565b73ffffffffffffffffffffffffffffffffffffffff16ff5b565b6119dd81613f5e565b50565b6119e981613fb8565b50565b60606119f88484613eb3565b905081600080838051906020012081526020019081526020016000208190555050505050565b6000611a3482600561401290919063ffffffff16565b9050919050565b6000806060600080600080600080611a5161496c565b600960008c8152602001908152602001600020610220604051908101604052908160008201548152602001600182015481526020016002820160009054906101000a900473ffffffffffffffffffffffffffffffffffffffff1673ffffffffffffffffffffffffffffffffffffffff1673ffffffffffffffffffffffffffffffffffffffff1681526020016003820160009054906101000a900473ffffffffffffffffffffffffffffffffffffffff1673ffffffffffffffffffffffffffffffffffffffff1673ffffffffffffffffffffffffffffffffffffffff168152602001600482018054600181600116156101000203166002900480601f016020809104026020016040519081016040528092919081815260200182805460018160011615610100020316600290048015611bca5780601f10611b9f57610100808354040283529160200191611bca565b820191906000526020600020905b815481529060010190602001808311611bad57829003601f168201915b50505050508152602001600582018054600181600116156101000203166002900480601f016020809104026020016040519081016040528092919081815260200182805460018160011615610100020316600290048015611c6c5780601f10611c4157610100808354040283529160200191611c6c565b820191906000526020600020905b815481529060010190602001808311611c4f57829003601f168201915b5050505050815260200160068201548152602001600782018054600181600116156101000203166002900480601f016020809104026020016040519081016040528092919081815260200182805460018160011615610100020316600290048015611d185780601f10611ced57610100808354040283529160200191611d18565b820191906000526020600020905b815481529060010190602001808311611cfb57829003601f168201915b50505050508152602001600882018054600181600116156101000203166002900480601f016020809104026020016040519081016040528092919081815260200182805460018160011615610100020316600290048015611dba5780601f10611d8f57610100808354040283529160200191611dba565b820191906000526020600020905b815481529060010190602001808311611d9d57829003601f168201915b50505050508152602001600982018054600181600116156101000203166002900480601f016020809104026020016040519081016040528092919081815260200182805460018160011615610100020316600290048015611e5c5780601f10611e3157610100808354040283529160200191611e5c565b820191906000526020600020905b815481529060010190602001808311611e3f57829003601f168201915b50505050508152602001600a8201548152602001600b820160009054906101000a900460ff166006811115611e8d57fe5b6006811115611e9857fe5b8152602001600c8201548152602001600d820160009054906101000a900473ffffffffffffffffffffffffffffffffffffffff1673ffffffffffffffffffffffffffffffffffffffff1673ffffffffffffffffffffffffffffffffffffffff168152602001600e820160009054906101000a900473ffffffffffffffffffffffffffffffffffffffff1673ffffffffffffffffffffffffffffffffffffffff1673ffffffffffffffffffffffffffffffffffffffff168152602001600f820160009054906101000a900473ffffffffffffffffffffffffffffffffffffffff1673ffffffffffffffffffffffffffffffffffffffff1673ffffffffffffffffffffffffffffffffffffffff1681526020016010820160009054906101000a900473ffffffffffffffffffffffffffffffffffffffff1673ffffffffffffffffffffffffffffffffffffffff1673ffffffffffffffffffffffffffffffffffffffff168152505090508060c00151985080610120015197508a995080610140015196508061016001519550806101a001519450806101c001519350806101e0015192508061020001519150898989898989898989995099509950995099509950995099509950509193959799909294969850565b612074816140a6565b50565b600061208d82600261401290919063ffffffff16565b9050919050565b600760009054906101000a900473ffffffffffffffffffffffffffffffffffffffff1673ffffffffffffffffffffffffffffffffffffffff163373ffffffffffffffffffffffffffffffffffffffff161415156120f057600080fd5b600073ffffffffffffffffffffffffffffffffffffffff16600160009054906101000a900473ffffffffffffffffffffffffffffffffffffffff1673ffffffffffffffffffffffffffffffffffffffff167f5c486528ec3e3f0ea91181cff8116f02bfa350e03b8b6f12e00765adbb5af85c60405160405180910390a36000600160006101000a81548173ffffffffffffffffffffffffffffffffffffffff021916908373ffffffffffffffffffffffffffffffffffffffff160217905550565b80600060068111156121bf57fe5b60096000838152602001908152602001600020600b0160009054906101000a900460ff1660068111156121ee57fe5b1415156121fa57600080fd5b61220333613670565b151561220e57600080fd5b60006009600084815260200190815260200160002090503381600d0160006101000a81548173ffffffffffffffffffffffffffffffffffffffff021916908373ffffffffffffffffffffffffffffffffffffffff1602179055506060612449826004018054600181600116156101000203166002900480601f0160208091040260200160405190810160405280929190818152602001828054600181600116156101000203166002900480156123055780601f106122da57610100808354040283529160200191612305565b820191906000526020600020905b8154815290600101906020018083116122e857829003601f168201915b5050505050836007018054600181600116156101000203166002900480601f0160208091040260200160405190810160405280929190818152602001828054600181600116156101000203166002900480156123a25780601f10612377576101008083540402835291602001916123a2565b820191906000526020600020905b81548152906001019060200180831161238557829003601f168201915b5050505050846008018054600181600116156101000203166002900480601f01602080910402602001604051908101604052809291908181526020018280546001816001161561010002031660029004801561243f5780601f106124145761010080835404028352916020019161243f565b820191906000526020600020905b81548152906001019060200180831161242257829003601f168201915b5050505050614100565b9050806040516020018082805190602001908083835b602083101515612484578051825260208201915060208101905060208303925061245f565b6001836020036101000a03801982511681845116808217855250505050505090500191505060405160208183030381529060405280519060200120600190048260010181905550600182600b0160006101000a81548160ff021916908360068111156124ec57fe5b02179055507f3ad93af63cb7967b23e4fb500b7d7d28b07516325dcf341f88bebf959d82c1cb846040518082815260200191505060405180910390a150505050565b600080600080606080606061254161496c565b600960008a8152602001908152602001600020610220604051908101604052908160008201548152602001600182015481526020016002820160009054906101000a900473ffffffffffffffffffffffffffffffffffffffff1673ffffffffffffffffffffffffffffffffffffffff1673ffffffffffffffffffffffffffffffffffffffff1681526020016003820160009054906101000a900473ffffffffffffffffffffffffffffffffffffffff1673ffffffffffffffffffffffffffffffffffffffff1673ffffffffffffffffffffffffffffffffffffffff168152602001600482018054600181600116156101000203166002900480601f0160208091040260200160405190810160405280929190818152602001828054600181600116156101000203166002900480156126ba5780601f1061268f576101008083540402835291602001916126ba565b820191906000526020600020905b81548152906001019060200180831161269d57829003601f168201915b50505050508152602001600582018054600181600116156101000203166002900480601f01602080910402602001604051908101604052809291908181526020018280546001816001161561010002031660029004801561275c5780601f106127315761010080835404028352916020019161275c565b820191906000526020600020905b81548152906001019060200180831161273f57829003601f168201915b5050505050815260200160068201548152602001600782018054600181600116156101000203166002900480601f0160208091040260200160405190810160405280929190818152602001828054600181600116156101000203166002900480156128085780601f106127dd57610100808354040283529160200191612808565b820191906000526020600020905b8154815290600101906020018083116127eb57829003601f168201915b50505050508152602001600882018054600181600116156101000203166002900480601f0160208091040260200160405190810160405280929190818152602001828054600181600116156101000203166002900480156128aa5780601f1061287f576101008083540402835291602001916128aa565b820191906000526020600020905b81548152906001019060200180831161288d57829003601f168201915b50505050508152602001600982018054600181600116156101000203166002900480601f01602080910402602001604051908101604052809291908181526020018280546001816001161561010002031660029004801561294c5780601f106129215761010080835404028352916020019161294c565b820191906000526020600020905b81548152906001019060200180831161292f57829003601f168201915b50505050508152602001600a8201548152602001600b820160009054906101000a900460ff16600681111561297d57fe5b600681111561298857fe5b8152602001600c8201548152602001600d820160009054906101000a900473ffffffffffffffffffffffffffffffffffffffff1673ffffffffffffffffffffffffffffffffffffffff1673ffffffffffffffffffffffffffffffffffffffff168152602001600e820160009054906101000a900473ffffffffffffffffffffffffffffffffffffffff1673ffffffffffffffffffffffffffffffffffffffff1673ffffffffffffffffffffffffffffffffffffffff168152602001600f820160009054906101000a900473ffffffffffffffffffffffffffffffffffffffff1673ffffffffffffffffffffffffffffffffffffffff1673ffffffffffffffffffffffffffffffffffffffff1681526020016010820160009054906101000a900473ffffffffffffffffffffffffffffffffffffffff1673ffffffffffffffffffffffffffffffffffffffff1673ffffffffffffffffffffffffffffffffffffffff16815250509050889750806020015196508060400151955080606001519450806080015193508060a0015192508060e00151915087878787878787975097509750975097509750975050919395979092949650565b600a6000838152602001908152602001600020819080600181540180825580915050906001820390600052602060002001600090919290919091509080519060200190612b8c929190614a83565b50505050565b60096000828152602001908152602001600020600a0154803410151515612bb857600080fd5b81600060096000838152602001908152602001600020600a01549050600081340390503373ffffffffffffffffffffffffffffffffffffffff166108fc829081150290604051600060405180830381858888f19350505050158015612c21573d6000803e3d6000fd5b5060006009600087815260200190815260200160002090506063612c44336118ba565b14151515612c5157600080fd5b6002612c5c336118ba565b1415612d3d5760036006811115612c6f57fe5b81600b0160009054906101000a900460ff166006811115612c8c57fe5b141515612c9857600080fd5b3381600e0160006101000a81548173ffffffffffffffffffffffffffffffffffffffff021916908373ffffffffffffffffffffffffffffffffffffffff160217905550600481600b0160006101000a81548160ff02191690836006811115612cfc57fe5b02179055507f1d0876a0345b2bbb1ad9d15d5946a1e4fdab617e80e1669e84fce7a0b191c697866040518082815260200191505060405180910390a1612f13565b6003612d48336118ba565b1415612e295760046006811115612d5b57fe5b81600b0160009054906101000a900460ff166006811115612d7857fe5b141515612d8457600080fd5b3381600f0160006101000a81548173ffffffffffffffffffffffffffffffffffffffff021916908373ffffffffffffffffffffffffffffffffffffffff160217905550600581600b0160006101000a81548160ff02191690836006811115612de857fe5b02179055507fa96ae0fc3224ebd79eebfe54bd130cc9cb94416cddd1f2386115e00b72532468866040518082815260200191505060405180910390a1612f12565b6004612e34336118ba565b1415612f115760056006811115612e4757fe5b81600b0160009054906101000a900460ff166006811115612e6457fe5b141515612e7057600080fd5b338160100160006101000a81548173ffffffffffffffffffffffffffffffffffffffff021916908373ffffffffffffffffffffffffffffffffffffffff160217905550600681600b0160006101000a81548160ff02191690836006811115612ed457fe5b02179055507f92f64ca637d023f354075a4be751b169c1a8a9ccb6d33cdd0cb3520543995727866040518082815260200191505060405180910390a15b5b5b6000612f428260020160009054906101000a900473ffffffffffffffffffffffffffffffffffffffff16613f54565b9050338260020160006101000a81548173ffffffffffffffffffffffffffffffffffffffff021916908373ffffffffffffffffffffffffffffffffffffffff1602179055508073ffffffffffffffffffffffffffffffffffffffff166108fc83600a01549081150290604051600060405180830381858888f19350505050158015612fd1573d6000803e3d6000fd5b5050505050505050565b60006009600084815260200190815260200160002090506000612ffd336118ba565b14806130115750600261300f336118ba565b145b8061302457506003613022336118ba565b145b151561302f57600080fd5b3373ffffffffffffffffffffffffffffffffffffffff168160020160009054906101000a900473ffffffffffffffffffffffffffffffffffffffff1673ffffffffffffffffffffffffffffffffffffffff1614151561308d57600080fd5b8181600a0181905550505050565b60006130b182600661401290919063ffffffff16565b9050919050565b6000600160009054906101000a900473ffffffffffffffffffffffffffffffffffffffff16905090565b6130eb33614138565b565b6000600160009054906101000a900473ffffffffffffffffffffffffffffffffffffffff1673ffffffffffffffffffffffffffffffffffffffff163373ffffffffffffffffffffffffffffffffffffffff1614905090565b600a6020528160005260406000208181548110151561316057fe5b90600052602060002001600091509150508054600181600116156101000203166002900480601f0160208091040260200160405190810160405280929190818152602001828054600181600116156101000203166002900480156132055780601f106131da57610100808354040283529160200191613205565b820191906000526020600020905b8154815290600101906020018083116131e857829003601f168201915b505050505081565b61321633614192565b565b613221816141ec565b50565b61322d81614246565b50565b826001600681111561323e57fe5b60096000838152602001908152602001600020600b0160009054906101000a900460ff16600681111561326d57fe5b14151561327957600080fd5b61328233612077565b151561328d57600080fd5b60006009600086815260200190815260200160002090503373ffffffffffffffffffffffffffffffffffffffff168160020160009054906101000a900473ffffffffffffffffffffffffffffffffffffffff1673ffffffffffffffffffffffffffffffffffffffff1614151561330257600080fd5b60004290508082600c0181905550808601604051602001808281526020019150506040516020818303038152906040528051906020012082600601819055508482600a018190555083826009019080519060200190613362929190614a83565b50600282600b0160006101000a81548160ff0219169083600681111561338457fe5b02179055507f9d1715437821cd9a90cba5d1a68995c308d9ad9afc754ed9a1cff429760796e6866040518082815260200191505060405180910390a1505050505050565b60636133d3836118ba565b1415156133df57600080fd5b61341e816040805190810160405280601681526020017f506861726d61636575746963616c20436f6d70616e790000000000000000000081525061357d565b156134315761342c826119e0565b613579565b613470816040805190810160405280600381526020017f4d564f000000000000000000000000000000000000000000000000000000000081525061357d565b156134835761347e82613224565b613578565b6134c2816040805190810160405280601181526020017f57686f6c6573616c6520436f6d70616e7900000000000000000000000000000081525061357d565b156134d5576134d08261206b565b613577565b613514816040805190810160405280600881526020017f506861726d61637900000000000000000000000000000000000000000000000081525061357d565b156135275761352282613218565b613576565b613566816040805190810160405280600681526020017f436c69656e74000000000000000000000000000000000000000000000000000081525061357d565b1561357557613574826119d4565b5b5b5b5b5b5050565b6000816040516020018082805190602001908083835b6020831015156135b85780518252602082019150602081019050602083039250613593565b6001836020036101000a03801982511681845116808217855250505050505090500191505060405160208183030381529060405280519060200120836040516020018082805190602001908083835b60208310151561362c5780518252602082019150602081019050602083039250613607565b6001836020036101000a0380198251168184511680821785525050505050509050019150506040516020818303038152906040528051906020012014905092915050565b600061368682600461401290919063ffffffff16565b9050919050565b60006136a382600361401290919063ffffffff16565b9050919050565b6000600b80549050905090565b6136c033612077565b15156136cb57600080fd5b6136d584826116fb565b1515156136e157600080fd5b6136e961496c565b610220604051908101604052806008548152602001600081526020013373ffffffffffffffffffffffffffffffffffffffff1681526020013373ffffffffffffffffffffffffffffffffffffffff1681526020018581526020018481526020016000801916815260200186815260200183815260200160206040519081016040528060008152508152602001600081526020016000600681111561378957fe5b815260200160008152602001600073ffffffffffffffffffffffffffffffffffffffff168152602001600073ffffffffffffffffffffffffffffffffffffffff168152602001600073ffffffffffffffffffffffffffffffffffffffff168152602001600073ffffffffffffffffffffffffffffffffffffffff16815250905080600960006008548152602001908152602001600020600082015181600001556020820151816001015560408201518160020160006101000a81548173ffffffffffffffffffffffffffffffffffffffff021916908373ffffffffffffffffffffffffffffffffffffffff16021790555060608201518160030160006101000a81548173ffffffffffffffffffffffffffffffffffffffff021916908373ffffffffffffffffffffffffffffffffffffffff16021790555060808201518160040190805190602001906138dd929190614b03565b5060a08201518160050190805190602001906138fa929190614b03565b5060c0820151816006015560e0820151816007019080519060200190613921929190614b03565b5061010082015181600801908051906020019061393f929190614b03565b5061012082015181600901908051906020019061395d929190614b03565b5061014082015181600a015561016082015181600b0160006101000a81548160ff0219169083600681111561398e57fe5b021790555061018082015181600c01556101a082015181600d0160006101000a81548173ffffffffffffffffffffffffffffffffffffffff021916908373ffffffffffffffffffffffffffffffffffffffff1602179055506101c082015181600e0160006101000a81548173ffffffffffffffffffffffffffffffffffffffff021916908373ffffffffffffffffffffffffffffffffffffffff1602179055506101e082015181600f0160006101000a81548173ffffffffffffffffffffffffffffffffffffffff021916908373ffffffffffffffffffffffffffffffffffffffff1602179055506102008201518160100160006101000a81548173ffffffffffffffffffffffffffffffffffffffff021916908373ffffffffffffffffffffffffffffffffffffffff160217905550905050613ace85836008546119ec565b7f24de7d10132367f8bd60f8764ffd1a55dc32cb6e2b8252f71fabcfa38967d5fb6008546040518082815260200191505060405180910390a16001600b8290806001815401808255809150509060018203906000526020600020906011020160009091929091909150600082015181600001556020820151816001015560408201518160020160006101000a81548173ffffffffffffffffffffffffffffffffffffffff021916908373ffffffffffffffffffffffffffffffffffffffff16021790555060608201518160030160006101000a81548173ffffffffffffffffffffffffffffffffffffffff021916908373ffffffffffffffffffffffffffffffffffffffff1602179055506080820151816004019080519060200190613bf5929190614b03565b5060a0820151816005019080519060200190613c12929190614b03565b5060c0820151816006015560e0820151816007019080519060200190613c39929190614b03565b50610100820151816008019080519060200190613c57929190614b03565b50610120820151816009019080519060200190613c75929190614b03565b5061014082015181600a015561016082015181600b0160006101000a81548160ff02191690836006811115613ca657fe5b021790555061018082015181600c01556101a082015181600d0160006101000a81548173ffffffffffffffffffffffffffffffffffffffff021916908373ffffffffffffffffffffffffffffffffffffffff1602179055506101c082015181600e0160006101000a81548173ffffffffffffffffffffffffffffffffffffffff021916908373ffffffffffffffffffffffffffffffffffffffff1602179055506101e082015181600f0160006101000a81548173ffffffffffffffffffffffffffffffffffffffff021916908373ffffffffffffffffffffffffffffffffffffffff1602179055506102008201518160100160006101000a81548173ffffffffffffffffffffffffffffffffffffffff021916908373ffffffffffffffffffffffffffffffffffffffff1602179055505050016008819055505050505050565b613def336142a0565b565b600760009054906101000a900473ffffffffffffffffffffffffffffffffffffffff1673ffffffffffffffffffffffffffffffffffffffff163373ffffffffffffffffffffffffffffffffffffffff16141515613e4d57600080fd5b613e56816142fa565b50565b613e6d8160056143f690919063ffffffff16565b8073ffffffffffffffffffffffffffffffffffffffff167f1f741da34e2a068ea80068f60a754dc428d290b45a213388be9a10ec7e7ad5e460405160405180910390a250565b6060613ef283836020604051908101604052806000815250602060405190810160405280600081525060206040519081016040528060008152506144a5565b905092915050565b613f0e8160066143f690919063ffffffff16565b8073ffffffffffffffffffffffffffffffffffffffff167f71eaa696f0767f21811adef17b683cfdcea929d4543129cd018806483aedc25960405160405180910390a250565b6000819050919050565b613f728160066148bc90919063ffffffff16565b8073ffffffffffffffffffffffffffffffffffffffff167f6c713924da8f1e694559181e3497cb03c970f0f7c023d913207d0410b531741e60405160405180910390a250565b613fcc8160026148bc90919063ffffffff16565b8073ffffffffffffffffffffffffffffffffffffffff167f36179de14e9e7cbce2e0a64264f3eb82e80b70aac44ff098d9c6f70b1d7d659560405160405180910390a250565b60008073ffffffffffffffffffffffffffffffffffffffff168273ffffffffffffffffffffffffffffffffffffffff161415151561404f57600080fd5b8260000160008373ffffffffffffffffffffffffffffffffffffffff1673ffffffffffffffffffffffffffffffffffffffff16815260200190815260200160002060009054906101000a900460ff16905092915050565b6140ba8160056148bc90919063ffffffff16565b8073ffffffffffffffffffffffffffffffffffffffff167faf2df1859ef5c2add3a623a73a0f17cc2c499b218acc040e0c7ab2635550e01160405160405180910390a250565b606061412f848484602060405190810160405280600081525060206040519081016040528060008152506144a5565b90509392505050565b61414c8160046143f690919063ffffffff16565b8073ffffffffffffffffffffffffffffffffffffffff167fd20a3c15767e60ed9b3f42873f25b9a1a369f6d86df9c917feeef694a0c1893260405160405180910390a250565b6141a68160026143f690919063ffffffff16565b8073ffffffffffffffffffffffffffffffffffffffff167fa9a482e6375ef89327f2177c114191d0b88502ca4a7b961d211cc45786ee510760405160405180910390a250565b6142008160036148bc90919063ffffffff16565b8073ffffffffffffffffffffffffffffffffffffffff167fe6c049ab5a3c2ae523452b89e43795966fec2f89b7bf443d91781a7c696d301760405160405180910390a250565b61425a8160046148bc90919063ffffffff16565b8073ffffffffffffffffffffffffffffffffffffffff167f9aa34669266507fd5d8d4825a243824d97b6a216f45692c533af9916cfcddeaf60405160405180910390a250565b6142b48160036143f690919063ffffffff16565b8073ffffffffffffffffffffffffffffffffffffffff167f46520b63a5e163f23aef94d996e90fbbec9b8959d1dd37aeb9bcb5a3a20ac5c960405160405180910390a250565b600073ffffffffffffffffffffffffffffffffffffffff168173ffffffffffffffffffffffffffffffffffffffff161415151561433657600080fd5b8073ffffffffffffffffffffffffffffffffffffffff16600160009054906101000a900473ffffffffffffffffffffffffffffffffffffffff1673ffffffffffffffffffffffffffffffffffffffff167f5c486528ec3e3f0ea91181cff8116f02bfa350e03b8b6f12e00765adbb5af85c60405160405180910390a380600160006101000a81548173ffffffffffffffffffffffffffffffffffffffff021916908373ffffffffffffffffffffffffffffffffffffffff16021790555050565b600073ffffffffffffffffffffffffffffffffffffffff168173ffffffffffffffffffffffffffffffffffffffff161415151561443257600080fd5b61443c8282614012565b151561444757600080fd5b60008260000160008373ffffffffffffffffffffffffffffffffffffffff1673ffffffffffffffffffffffffffffffffffffffff16815260200190815260200160002060006101000a81548160ff0219169083151502179055505050565b6060808690506060869050606086905060608690506060869050606081518351855187518951010101016040519080825280601f01601f1916602001820160405280156145015781602001600182028038833980820191505090505b5090506060819050600080905060008090505b88518110156145c757888181518110151561452b57fe5b9060200101517f010000000000000000000000000000000000000000000000000000000000000090047f010000000000000000000000000000000000000000000000000000000000000002838380600101945081518110151561458a57fe5b9060200101907effffffffffffffffffffffffffffffffffffffffffffffffffffffffffffff1916908160001a9053508080600101915050614514565b600090505b875181101561467f5787818151811015156145e357fe5b9060200101517f010000000000000000000000000000000000000000000000000000000000000090047f010000000000000000000000000000000000000000000000000000000000000002838380600101945081518110151561464257fe5b9060200101907effffffffffffffffffffffffffffffffffffffffffffffffffffffffffffff1916908160001a90535080806001019150506145cc565b600090505b865181101561473757868181518110151561469b57fe5b9060200101517f010000000000000000000000000000000000000000000000000000000000000090047f01000000000000000000000000000000000000000000000000000000000000000283838060010194508151811015156146fa57fe5b9060200101907effffffffffffffffffffffffffffffffffffffffffffffffffffffffffffff1916908160001a9053508080600101915050614684565b600090505b85518110156147ef57858181518110151561475357fe5b9060200101517f010000000000000000000000000000000000000000000000000000000000000090047f01000000000000000000000000000000000000000000000000000000000000000283838060010194508151811015156147b257fe5b9060200101907effffffffffffffffffffffffffffffffffffffffffffffffffffffffffffff1916908160001a905350808060010191505061473c565b600090505b84518110156148a757848181518110151561480b57fe5b9060200101517f010000000000000000000000000000000000000000000000000000000000000090047f010000000000000000000000000000000000000000000000000000000000000002838380600101945081518110151561486a57fe5b9060200101907effffffffffffffffffffffffffffffffffffffffffffffffffffffffffffff1916908160001a90535080806001019150506147f4565b82995050505050505050505095945050505050565b600073ffffffffffffffffffffffffffffffffffffffff168173ffffffffffffffffffffffffffffffffffffffff16141515156148f857600080fd5b6149028282614012565b15151561490e57600080fd5b60018260000160008373ffffffffffffffffffffffffffffffffffffffff1673ffffffffffffffffffffffffffffffffffffffff16815260200190815260200160002060006101000a81548160ff0219169083151502179055505050565b610220604051908101604052806000815260200160008152602001600073ffffffffffffffffffffffffffffffffffffffff168152602001600073ffffffffffffffffffffffffffffffffffffffff1681526020016060815260200160608152602001600080191681526020016060815260200160608152602001606081526020016000815260200160006006811115614a0257fe5b815260200160008152602001600073ffffffffffffffffffffffffffffffffffffffff168152602001600073ffffffffffffffffffffffffffffffffffffffff168152602001600073ffffffffffffffffffffffffffffffffffffffff168152602001600073ffffffffffffffffffffffffffffffffffffffff1681525090565b828054600181600116156101000203166002900490600052602060002090601f016020900481019282601f10614ac457805160ff1916838001178555614af2565b82800160010185558215614af2579182015b82811115614af1578251825591602001919060010190614ad6565b5b509050614aff9190614b83565b5090565b828054600181600116156101000203166002900490600052602060002090601f016020900481019282601f10614b4457805160ff1916838001178555614b72565b82800160010185558215614b72579182015b82811115614b71578251825591602001919060010190614b56565b5b509050614b7f9190614b83565b5090565b614ba591905b80821115614ba1576000816000905550600101614b89565b5090565b9056fea165627a7a723058203b395200baa6d9dd6d618d51d9642eeb0cbb3cebf52c3ed3e8407533a4930ec20029",
  "source": "pragma solidity >=0.4.24;\n// Define a contract 'Supplychain'\n\nimport \"../accesscontrol/PharmaceuticalCompanyRole.sol\";\nimport \"../accesscontrol/PharmacyRole.sol\";\nimport \"../accesscontrol/MVORole.sol\";\nimport \"../accesscontrol/WholeSaleCompanyRole.sol\";\nimport \"../accesscontrol/ClientRole.sol\";\nimport \"../core/Ownable.sol\";\nimport \"./Utils.sol\";\n\ncontract DrugSupplyChain is Utils, Ownable, PharmaceuticalCompanyRole, PharmacyRole, MVORole, WholeSaleCompanyRole, ClientRole {\n\n    // Define 'creator'\n    address creator;\n\n    // define current owner variable\n    // address currentOwner;\n\n    // Define a variable called 'upc' for Universal Product Code (UPC)\n    uint upc;\n\n    // Define a variable called 'sku' for Stock Keeping Unit (SKU)\n    // uint sku;\n\n    // Define a public mapping 'drugs' that maps the UPC to a Drug struct.\n    mapping (uint => Drug) drugs;\n\n    // Define a public mapping 'drugsHistory' that maps the UPC to an array of TxHash,\n    // that track its journey through the supply chain -- to be sent from DApp.\n    mapping (uint => string[]) public drugsHistory;\n\n    // Define a public mapping 'ownersHistory' that maps the UPC to an array of ownersAddresses,\n    //mapping (uint => address[]) public ownersHistory;\n\n    Drug[] discoveredDrugs;\n\n    // Define enum 'State' with the following values:\n    enum State\n    {\n        Discovered,  // 0\n        Approved,  // 1\n        Produced,     // 2\n        ForWholeSale,    // 3\n        ForRetail,       // 4\n        ForSale,    // 5\n        Sold   // 6\n    }\n\n    // Define enum 'Role' with the following values:\n\n    enum Role\n    {\n        PharmaCompany,  // 0\n        MVO, // 1\n        WholeSaleCompany,  // 2\n        Pharmacy,     // 3\n        Client    // 4\n    }\n\n    State constant defaultState = State.Discovered;\n\n    // Define a struct 'Drug' with the following fields:\n    struct Drug {\n        //uint sku;  // Stock Keeping Unit (SKU)\n        uint upc; // Universal Product Code (UPC), generated by the pharma company, goes on the package, can be verified by the Client\n        uint mvoCode; // generated by the MVO - unique code of the product batch\n        address ownerID;  // Metamask-Ethereum address of the current owner as the product moves through 7 stages\n        address originPharmaCompanyID; // Metamask-Ethereum address of the PharmaCompany\n        string originPharmaName; // PharmaCompany Name\n        string originPharmaInformation;  // PharmaCompany Information\n        //string originPharmaPlantLatitude; // PharmaCompany Plant Latitude\n        //string originPharmaPlantLongitude;  // PharmaCompany Plant Longitude\n        bytes32 productID;  // Product ID potentially a combination of upc + sku\n        string drugName;\n        string activeIngredient; // API used in the drug\n        string drugNotes; // Product Notes\n        uint drugPrice; // Product Price\n        State drugState;  // Product State as represented in the enum above\n        uint timestamp;\n        address MVOiD;  // Metamask-Ethereum address of the MVO\n        address wholesalerID; // Metamask-Ethereum address of the WholeSaleCompany\n        address pharmacyID; // Metamask-Ethereum address of the Pharmacy\n        address clientID; // Metamask-Ethereum address of the Client\n    }\n\n    // Define 8 events with the same 8 state values and accept 'upc' as input argument\n    event Discovered(uint upc);\n    event Approved(uint upc);\n    event Produced(uint upc);\n    event ForWholeSale(uint upc);\n    event ForRetail(uint upc);\n    event ForSale(uint upc);\n    event Sold(uint upc);\n\n    // Define a modifer that checks to see if msg.sender == creator of the contract\n    modifier onlyOwner() {\n        require(msg.sender == creator);\n        _;\n    }\n\n    // Define a modifer that verifies the Caller\n    modifier verifyCaller (address _address) {\n        require(msg.sender == _address);\n        _;\n    }\n\n    // Define a modifier that checks if the paid amount is sufficient to cover the price\n    modifier paidEnough(uint _price) {\n        require(msg.value >= _price);\n        _;\n    }\n\n    // Define a modifier that checks the price and refunds the remaining balance\n    modifier checkValue(uint _upc) {\n        uint _price = drugs[_upc].drugPrice;\n        uint amountToReturn = msg.value - _price;\n        // drugs[_upc].consumerID.transfer(amountToReturn);\n        msg.sender.transfer(amountToReturn);\n        _;\n    }\n\n    // Define a modifier that checks if an item.state of a upc is Discovered\n    modifier discovered(uint _upc) {\n        require(drugs[_upc].drugState == State.Discovered);\n        _;\n    }\n\n    // Define a modifier that checks if an item.state of a upc is Approved\n    modifier approved(uint _upc) {\n        require(drugs[_upc].drugState == State.Approved);\n        _;\n    }\n\n    // Define a modifier that checks if an item.state of a upc is Produced\n    modifier produced(uint _upc) {\n        require(drugs[_upc].drugState == State.Produced);\n        _;\n    }\n\n    // Define a modifier that checks if an item.state of a upc is ForWholeSale\n    modifier forWholeSale(uint _upc) {\n        require(drugs[_upc].drugState == State.ForWholeSale);\n        _;\n    }\n\n    // Define a modifier that checks if an item.state of a upc is ForRetail\n    modifier forRetail(uint _upc) {\n        require(drugs[_upc].drugState == State.ForRetail);\n        _;\n    }\n\n    // Define a modifier that checks if an item.state of a upc is ForSale\n    modifier forSale(uint _upc) {\n        require(drugs[_upc].drugState == State.ForSale);\n      _;\n    }\n\n    // Define a modifier that checks if an item.state of a upc is Sold\n    modifier sold(uint _upc) {\n        require(drugs[_upc].drugState == State.Sold);\n        _;\n    }\n\n    constructor() public payable {\n        creator = msg.sender;\n        //sku = 1;\n        upc = 1;\n    }\n\n    // Define a function 'kill' if required\n    function kill() public {\n        if (msg.sender == creator) {\n            selfdestruct(_makePayable(creator));\n        }\n    }\n\n    // make an address payable\n    function _makePayable(address x) private pure returns(address payable) {\n        return address(uint160(x));\n    }\n\n    function currentRole(address account) public view returns(uint) {\n        if (isPharmaCompany(account)) {\n            // account is recorded as a pharmaCompany\n            return 0;\n        } else if (isMVO(account)) {\n            // account is recorded as an MVO\n            return 1;\n        } else if (isWholeSaleCompany(account)) {\n            // account is recorded as a wholeSaleCompany\n            return 2;\n        } else if (isPharmacy(account)) {\n            // account is recorded as a pharmacy\n            return 3;\n        } else if (isClient(account)) {\n            // account is recorded as a client\n            return 4;\n        } else {\n            // no role assigned\n            return 99;\n        }\n    }\n\n    function signInAs(address _account, string memory _role) public {\n        // no previous role must be assigned\n        require(currentRole(_account) == 99);\n        if (compareStrings(_role, \"Pharmaceutical Company\")) {\n            addPharmaCompany(_account);\n        } else if (compareStrings(_role, \"MVO\")) {\n            addMVO(_account);\n        } else if (compareStrings(_role, \"Wholesale Company\")) {\n            addWholeSaleCompany(_account);\n        } else if (compareStrings(_role, \"Pharmacy\")) {\n            addPharmacy(_account);\n        } else if (compareStrings(_role, \"Client\")) {\n            addClient(_account);\n        }\n    }\n\n    // define a function that will enable the frontend to modify the drug transaction history\n    function setTxHistory(uint _upc, string memory _txHash) public {\n        drugsHistory[_upc].push(_txHash);\n    }\n\n    // Define a function 'discoverDrug' that allows a farmer to mark an item 'Discovered'\n    function discoverDrug(\n        string memory _drugName,\n        //address _originPharmaCompanyID,\n        string memory _originPharmaName,\n        string memory _originPharmaInformation,\n        //string  memory _originPharmaPlantLatitude,\n        //string  memory _originPharmaPlantLongitude,\n        string memory _activeIngredient\n    ) public onlyPharmaCompanies\n    {\n    // Add the new item\n    require(!checkIfDrugExists(_drugName, _activeIngredient));\n    //require(!checkIfDrugExists(_drugName));\n    Drug memory newDrug = Drug({\n        upc: upc,\n        //sku: sku,\n        mvoCode: 0,\n        ownerID: msg.sender,\n        originPharmaCompanyID: msg.sender,\n        originPharmaName: _originPharmaName,\n        originPharmaInformation: _originPharmaInformation,\n        //originPharmaPlantLatitude: _originPharmaPlantLatitude,\n        //originPharmaPlantLongitude: _originPharmaPlantLongitude,\n        productID: \"\",\n        drugName: _drugName,\n        activeIngredient: _activeIngredient,\n        drugNotes: \"\",\n        drugPrice: 0,\n        drugState: State.Discovered,\n        timestamp: 0,\n        MVOiD: address(0),\n        wholesalerID: address(0),\n        pharmacyID: address(0),\n        clientID: address(0)\n    });\n\n    drugs[upc] = newDrug;\n    storeHashedCoords(_drugName, _activeIngredient, upc);\n    // Emit the appropriate event\n    emit Discovered(upc);\n\n    // increment upc\n    upc = discoveredDrugs.push(newDrug) + 1;\n    // update the owners history mapping\n    // currentOwner = msg.sender;\n    // ownersHistory[upc].push(currentOwner);\n    }\n\n    // Define a function 'addUniqueID' that allows an MVO to change the state of a drug to 'Approved'\n    function addUniqueID(uint _upc) public discovered(_upc) onlyMVOs\n    // Call modifier to check if upc has passed previous supply chain stage\n    // Call modifier to verify caller of this function\n    {\n    // Update the appropriate fields\n    Drug storage drugToUpdate = drugs[_upc];\n    // add the mvo address\n    drugToUpdate.MVOiD = msg.sender;\n\n\n    string memory concatCoords = strConcat(drugToUpdate.originPharmaName, drugToUpdate.drugName, drugToUpdate.activeIngredient);\n    // update the mvo code\n    drugToUpdate.mvoCode = uint(keccak256(abi.encodePacked(concatCoords)));\n    // update the state\n    drugToUpdate.drugState = State.Approved;\n\n    // Emit the appropriate event\n    emit Approved(_upc);\n\n    // update the owners history mapping\n    /*ownersHistory[upc].push(currentOwner);*/\n\n    }\n\n    // Define a function 'produce Drug' that allows a pharmaCompany to change the state of the drug to 'Produced'\n    function produceDrug(uint _upc, uint _price, string memory _drugNotes) public approved(_upc) onlyPharmaCompanies\n    // Call modifier to check if upc has passed previous supply chain stage\n    // Call modifier to verify caller of this function\n    {\n    // Update the appropriate fields\n    Drug storage drugToUpdate = drugs[_upc];\n    // only the discoverer can produce the drug\n    require(drugToUpdate.ownerID == msg.sender);\n    // update timestamp\n    uint currentTime = now;\n    drugToUpdate.timestamp = currentTime;\n\n    drugToUpdate.productID = keccak256(abi.encodePacked(_upc + currentTime));\n    drugToUpdate.drugPrice = _price;\n    drugToUpdate.drugNotes = _drugNotes;\n\n    // update the state\n\n    drugToUpdate.drugState = State.Produced;\n    // Emit the appropriate event\n    emit Produced(_upc);\n    // update the owners history mapping\n    /*currentOwner = msg.sender;\n    ownersHistory[upc].push(currentOwner);*/\n    }\n\n    // Define a function 'setForWholeSale' that allows a pharma company to change the state of the drug to \"ForWholeSale\"\n    function setForWholeSale(uint _upc) public produced(_upc) onlyPharmaCompanies\n    // Call modifier to check if upc has passed previous supply chain stage\n    // Call modifier to verify caller of this function\n\n    {\n    // Update the appropriate fields\n    Drug storage drugToUpdate = drugs[_upc];\n    require(drugToUpdate.ownerID == msg.sender);\n    //drugToUpdate.drugPrice = _price;\n    drugToUpdate.drugState = State.ForWholeSale;\n    // Emit the appropriate event\n    emit ForWholeSale(_upc);\n    }\n\n    // define a function to enable buyig a drugName\n    function buyDrugItem(uint _upc) public payable paidEnough(drugs[_upc].drugPrice) checkValue(_upc) {\n        // Update the appropriate fields\n        Drug storage drugToUpdate = drugs[_upc];\n        require(currentRole(msg.sender) != 99);\n\n        if (currentRole(msg.sender) == 2) {\n            // if the sender is a wholesale company\n            require(drugToUpdate.drugState == State.ForWholeSale);\n            drugToUpdate.wholesalerID = msg.sender;\n            drugToUpdate.drugState = State.ForRetail;\n            emit ForRetail(_upc);\n        } else if (currentRole(msg.sender) == 3) {\n            // if the sender is a pharmacy\n            require(drugToUpdate.drugState == State.ForRetail);\n            drugToUpdate.pharmacyID = msg.sender;\n            drugToUpdate.drugState = State.ForSale;\n            emit ForSale(_upc);\n        } else if (currentRole(msg.sender) == 4) {\n            // if the sender is a private client\n            require(drugToUpdate.drugState == State.ForSale);\n            drugToUpdate.clientID = msg.sender;\n            drugToUpdate.drugState = State.Sold;\n            emit Sold(_upc);\n        }\n        /*// update the owners history mapping\n        currentOwner = msg.sender;\n        ownersHistory[_upc].push(currentOwner);*/\n        address payable prevOwner = _makePayable(drugToUpdate.ownerID);\n        drugToUpdate.ownerID = msg.sender;\n        prevOwner.transfer(drugToUpdate.drugPrice);\n\n    }\n\n    function updatePrice(uint _upc, uint _newPrice) public {\n        Drug storage drugToUpdate = drugs[_upc];\n        require(currentRole(msg.sender) == 0 || currentRole(msg.sender) == 2 || currentRole(msg.sender) == 3);\n        require(drugToUpdate.ownerID == msg.sender);\n        drugToUpdate.drugPrice = _newPrice;\n    }\n\n  //}\n    function howManyDrugs() public view returns(uint) {\n        return discoveredDrugs.length;\n    }\n\n    function getTxHistoryLength(uint _upc) public view returns(uint) {\n        return drugsHistory[_upc].length;\n    }\n\n    // Define a function 'fetchItemBufferOne' that fetches the data\n    function fetchItemBufferOne(uint _upc) public view returns\n    (\n    uint univProdCode,\n    uint mvoCode,\n    address ownerID,\n    address originPharmaCompanyID,\n    string memory originPharmaName,\n    string memory originPharmaInformation,\n    string memory drugName\n    )\n    {\n    // Assign values to the parameters\n    Drug memory drugToUpdate = drugs[_upc];\n\n    univProdCode = _upc;\n    mvoCode = drugToUpdate.mvoCode;\n    ownerID = drugToUpdate.ownerID;\n    originPharmaCompanyID = drugToUpdate.originPharmaCompanyID;\n    originPharmaName = drugToUpdate.originPharmaName;\n    originPharmaInformation = drugToUpdate.originPharmaInformation;\n    drugName = drugToUpdate.drugName;\n\n    return (univProdCode, mvoCode, ownerID, originPharmaCompanyID, originPharmaName, originPharmaInformation, drugName);\n    }\n\n    // Define a function 'fetchItemBufferTwo' that fetches the data\n    function fetchItemBufferTwo(uint _upc) public view returns\n    (\n    uint univProdCode,\n    bytes32 productID,\n    string memory drugNotes,\n    uint drugPrice,\n    State drugState,\n    address MVOiD,\n    address wholesalerID,\n    address pharmacyID,\n    address clientID\n    )\n    {\n    // Assign values to the parameters\n    Drug memory drugToUpdate = drugs[_upc];\n\n    productID = drugToUpdate.productID;\n    drugNotes = drugToUpdate.drugNotes;\n    univProdCode = _upc;\n    drugPrice = drugToUpdate.drugPrice;\n    drugState = drugToUpdate.drugState;\n    MVOiD = drugToUpdate.MVOiD;\n    wholesalerID = drugToUpdate.wholesalerID;\n    pharmacyID = drugToUpdate.pharmacyID;\n    clientID = drugToUpdate.clientID;\n\n    return (univProdCode, productID, drugNotes, drugPrice, drugState, MVOiD, wholesalerID, pharmacyID, clientID);\n    }\n}\n",
  "sourcePath": "/home/robert/Documents/Udacity/Blockchain/Project6/DrugSupplyChain/contracts/base/DrugSupplyChain.sol",
  "compiler": {
    "name": "solc",
    "version": "0.5.0+commit.1d4f565a.Emscripten.clang"
  },
  "schemaVersion": "3.0.2",
  "updatedAt": "2019-04-03T23:27:17.293Z",
  "devdoc": {
    "methods": {}
  },
  "userdoc": {
    "methods": {
      "isOwner()": {
        "notice": "Check if the calling address is the owner of the contract"
      },
      "owner()": {
        "notice": "Look up the address of the owner"
      },
      "renounceOwnership()": {
        "notice": "Define a function to renounce ownerhip"
      },
      "transferOwnership(address)": {
        "notice": "Define a public function to transfer ownership"
      }
    }
  }
}