{
  "contractName": "MVORole",
  "abi": [
    {
      "anonymous": false,
      "inputs": [
        {
          "indexed": true,
          "name": "account",
          "type": "address"
        }
      ],
      "name": "MVOAdded",
      "type": "event"
    },
    {
      "anonymous": false,
      "inputs": [
        {
          "indexed": true,
          "name": "account",
          "type": "address"
        }
      ],
      "name": "MVORemoved",
      "type": "event"
    },
    {
      "constant": true,
      "inputs": [
        {
          "name": "account",
          "type": "address"
        }
      ],
      "name": "isMVO",
      "outputs": [
        {
          "name": "",
          "type": "bool"
        }
      ],
      "payable": false,
      "stateMutability": "view",
      "type": "function"
    },
    {
      "constant": false,
      "inputs": [
        {
          "name": "account",
          "type": "address"
        }
      ],
      "name": "addMVO",
      "outputs": [],
      "payable": false,
      "stateMutability": "nonpayable",
      "type": "function"
    },
    {
      "constant": false,
      "inputs": [],
      "name": "removeMVO",
      "outputs": [],
      "payable": false,
      "stateMutability": "nonpayable",
      "type": "function"
    }
  ],
  "bytecode": "0x608060405234801561001057600080fd5b50610434806100206000396000f3fe608060405260043610610057576000357c0100000000000000000000000000000000000000000000000000000000900463ffffffff1680638efc30f11461005c578063b4be904b14610073578063caaa540d146100c4575b600080fd5b34801561006857600080fd5b5061007161012d565b005b34801561007f57600080fd5b506100c26004803603602081101561009657600080fd5b81019080803573ffffffffffffffffffffffffffffffffffffffff169060200190929190505050610138565b005b3480156100d057600080fd5b50610113600480360360208110156100e757600080fd5b81019080803573ffffffffffffffffffffffffffffffffffffffff169060200190929190505050610144565b604051808215151515815260200191505060405180910390f35b61013633610161565b565b610141816101bb565b50565b600061015a82600061021590919063ffffffff16565b9050919050565b6101758160006102a990919063ffffffff16565b8073ffffffffffffffffffffffffffffffffffffffff167fd20a3c15767e60ed9b3f42873f25b9a1a369f6d86df9c917feeef694a0c1893260405160405180910390a250565b6101cf81600061035890919063ffffffff16565b8073ffffffffffffffffffffffffffffffffffffffff167f9aa34669266507fd5d8d4825a243824d97b6a216f45692c533af9916cfcddeaf60405160405180910390a250565b60008073ffffffffffffffffffffffffffffffffffffffff168273ffffffffffffffffffffffffffffffffffffffff161415151561025257600080fd5b8260000160008373ffffffffffffffffffffffffffffffffffffffff1673ffffffffffffffffffffffffffffffffffffffff16815260200190815260200160002060009054906101000a900460ff16905092915050565b600073ffffffffffffffffffffffffffffffffffffffff168173ffffffffffffffffffffffffffffffffffffffff16141515156102e557600080fd5b6102ef8282610215565b15156102fa57600080fd5b60008260000160008373ffffffffffffffffffffffffffffffffffffffff1673ffffffffffffffffffffffffffffffffffffffff16815260200190815260200160002060006101000a81548160ff0219169083151502179055505050565b600073ffffffffffffffffffffffffffffffffffffffff168173ffffffffffffffffffffffffffffffffffffffff161415151561039457600080fd5b61039e8282610215565b1515156103aa57600080fd5b60018260000160008373ffffffffffffffffffffffffffffffffffffffff1673ffffffffffffffffffffffffffffffffffffffff16815260200190815260200160002060006101000a81548160ff021916908315150217905550505056fea165627a7a7230582025bb75d74324ccae2328c88f3d641273f38569bd1c3601209953bd1ce148e4030029",
  "source": "pragma solidity >=0.4.24;\n\n// Import the library 'Roles'\nimport \"./Roles.sol\";\n\n// Define a contract 'MVORole' to manage this role - add, remove, check\ncontract MVORole {\n  using Roles for Roles.Role;\n\n  // Define 2 events, one for Adding, and other for Removing\n  event MVOAdded(address indexed account);\n  event MVORemoved(address indexed account);\n\n  // Define a struct 'MVOs' by inheriting from 'Roles' library, struct Role\n  Roles.Role private MVOs;\n\n  // In the constructor make the address that deploys this contract the 1st MVO\n  /*constructor() public {\n    _addMVO(msg.sender);\n  }*/\n\n  // Define a modifier that checks to see if msg.sender has the appropriate role\n  modifier onlyMVOs() {\n    require(isMVO(msg.sender));\n    _;\n  }\n\n  // Define a function 'isMVO' to check this role\n  function isMVO(address account) public view returns (bool) {\n    return MVOs.has(account);\n  }\n\n  // Define a function 'addMVO' that adds this role\n  function addMVO(address account) public {\n    _addMVO(account);\n  }\n\n  // Define a function 'removeMVO' to renounce this role\n  function removeMVO() public {\n    _removeMVO(msg.sender);\n  }\n\n  // Define an internal function '_addMVO' to add this role, called by 'addMVO'\n  function _addMVO(address account) internal {\n      // \"using Roles for Roles.Role\" statement enables the following syntactic sugar\n      MVOs.add(account);\n      emit MVOAdded(account);\n  }\n\n  // Define an internal function '_removeMVO' to remove this role, called by 'removeMVO'\n  function _removeMVO(address account) internal {\n    MVOs.remove(account);\n    emit MVORemoved(account);\n  }\n}\n",
  "sourcePath": "/home/robert/Documents/Udacity/Blockchain/Project6/DrugSupplyChain/contracts/accesscontrol/MVORole.sol",
  "compiler": {
    "name": "solc",
    "version": "0.5.0+commit.1d4f565a.Emscripten.clang"
  },
  "schemaVersion": "3.0.2",
  "updatedAt": "2019-04-03T23:19:24.032Z",
  "devdoc": {
    "methods": {}
  },
  "userdoc": {
    "methods": {}
  }
}