{
  "contractName": "PharmaceuticalCompanyRole",
  "abi": [
    {
      "inputs": [],
      "payable": false,
      "stateMutability": "nonpayable",
      "type": "constructor"
    },
    {
      "anonymous": false,
      "inputs": [
        {
          "indexed": true,
          "name": "account",
          "type": "address"
        }
      ],
      "name": "PharmaAdded",
      "type": "event"
    },
    {
      "anonymous": false,
      "inputs": [
        {
          "indexed": true,
          "name": "account",
          "type": "address"
        }
      ],
      "name": "PharmaRemoved",
      "type": "event"
    },
    {
      "constant": true,
      "inputs": [
        {
          "name": "account",
          "type": "address"
        }
      ],
      "name": "isPharmaCompany",
      "outputs": [
        {
          "name": "",
          "type": "bool"
        }
      ],
      "payable": false,
      "stateMutability": "view",
      "type": "function"
    },
    {
      "constant": false,
      "inputs": [
        {
          "name": "account",
          "type": "address"
        }
      ],
      "name": "addPharmaCompany",
      "outputs": [],
      "payable": false,
      "stateMutability": "nonpayable",
      "type": "function"
    },
    {
      "constant": false,
      "inputs": [],
      "name": "removePharmaCompany",
      "outputs": [],
      "payable": false,
      "stateMutability": "nonpayable",
      "type": "function"
    }
  ],
  "bytecode": "0x608060405234801561001057600080fd5b506100293361002e640100000000026401000000009004565b6101e8565b61004f816000610095640100000000026102a9179091906401000000009004565b8073ffffffffffffffffffffffffffffffffffffffff167f36179de14e9e7cbce2e0a64264f3eb82e80b70aac44ff098d9c6f70b1d7d659560405160405180910390a250565b600073ffffffffffffffffffffffffffffffffffffffff168173ffffffffffffffffffffffffffffffffffffffff16141515156100d157600080fd5b6100ea8282610154640100000000026401000000009004565b1515156100f657600080fd5b60018260000160008373ffffffffffffffffffffffffffffffffffffffff1673ffffffffffffffffffffffffffffffffffffffff16815260200190815260200160002060006101000a81548160ff0219169083151502179055505050565b60008073ffffffffffffffffffffffffffffffffffffffff168273ffffffffffffffffffffffffffffffffffffffff161415151561019157600080fd5b8260000160008373ffffffffffffffffffffffffffffffffffffffff1673ffffffffffffffffffffffffffffffffffffffff16815260200190815260200160002060009054906101000a900460ff16905092915050565b610434806101f76000396000f3fe608060405260043610610057576000357c0100000000000000000000000000000000000000000000000000000000900463ffffffff16806346a7cc381461005c5780636d1aa178146100ad578063ab595af114610116575b600080fd5b34801561006857600080fd5b506100ab6004803603602081101561007f57600080fd5b81019080803573ffffffffffffffffffffffffffffffffffffffff16906020019092919050505061012d565b005b3480156100b957600080fd5b506100fc600480360360208110156100d057600080fd5b81019080803573ffffffffffffffffffffffffffffffffffffffff169060200190929190505050610139565b604051808215151515815260200191505060405180910390f35b34801561012257600080fd5b5061012b610156565b005b61013681610161565b50565b600061014f8260006101bb90919063ffffffff16565b9050919050565b61015f3361024f565b565b6101758160006102a990919063ffffffff16565b8073ffffffffffffffffffffffffffffffffffffffff167f36179de14e9e7cbce2e0a64264f3eb82e80b70aac44ff098d9c6f70b1d7d659560405160405180910390a250565b60008073ffffffffffffffffffffffffffffffffffffffff168273ffffffffffffffffffffffffffffffffffffffff16141515156101f857600080fd5b8260000160008373ffffffffffffffffffffffffffffffffffffffff1673ffffffffffffffffffffffffffffffffffffffff16815260200190815260200160002060009054906101000a900460ff16905092915050565b61026381600061035990919063ffffffff16565b8073ffffffffffffffffffffffffffffffffffffffff167fa9a482e6375ef89327f2177c114191d0b88502ca4a7b961d211cc45786ee510760405160405180910390a250565b600073ffffffffffffffffffffffffffffffffffffffff168173ffffffffffffffffffffffffffffffffffffffff16141515156102e557600080fd5b6102ef82826101bb565b1515156102fb57600080fd5b60018260000160008373ffffffffffffffffffffffffffffffffffffffff1673ffffffffffffffffffffffffffffffffffffffff16815260200190815260200160002060006101000a81548160ff0219169083151502179055505050565b600073ffffffffffffffffffffffffffffffffffffffff168173ffffffffffffffffffffffffffffffffffffffff161415151561039557600080fd5b61039f82826101bb565b15156103aa57600080fd5b60008260000160008373ffffffffffffffffffffffffffffffffffffffff1673ffffffffffffffffffffffffffffffffffffffff16815260200190815260200160002060006101000a81548160ff021916908315150217905550505056fea165627a7a72305820d21b7054848baa8c9d4efb2371fbc2006c783ca483983681fefa03fa4d1845a20029",
  "source": "pragma solidity >=0.4.24;\n\n// Import the library 'Roles'\nimport \"./Roles.sol\";\n\n// Define a contract 'PharmaRole' to manage this role - add, remove, check\ncontract PharmaceuticalCompanyRole {\n  using Roles for Roles.Role;\n\n  // Define 2 events, one for Adding, and other for Removing\n  event PharmaAdded(address indexed account);\n  event PharmaRemoved(address indexed account);\n\n  // Define a struct 'pharmaCompanies' by inheriting from 'Roles' library, struct Role\n  Roles.Role private pharmaCompanies;\n\n  // In the constructor make the address that deploys this contract the 1st pharmaCompany\n  constructor() public {\n    _addPharmaCompany(msg.sender);\n  }\n\n  // Define a modifier that checks to see if msg.sender has the appropriate role\n  modifier onlyPharmaCompanies() {\n    require(isPharmaCompany(msg.sender));\n    _;\n  }\n\n  // Define a function 'isPharmaCompany' to check this role\n  function isPharmaCompany(address account) public view returns (bool) {\n    return pharmaCompanies.has(account);\n  }\n\n  // Define a function 'addPharmaCompany' that adds this role\n  function addPharmaCompany(address account) public {\n    _addPharmaCompany(account);\n  }\n\n  // Define a function 'removePharmaCompany' to renounce this role\n  function removePharmaCompany() public {\n    _removePharmaCompany(msg.sender);\n  }\n\n  // Define an internal function '_addPharmaCompany' to add this role, called by 'addPharmaCompany'\n  function _addPharmaCompany(address account) internal {\n      // \"using Roles for Roles.Role\" statement enables the following syntactic sugar\n      pharmaCompanies.add(account);\n      emit PharmaAdded(account);\n  }\n\n  // Define an internal function '_removePharmaCompany' to remove this role, called by 'removePharmaCompany'\n  function _removePharmaCompany(address account) internal {\n    pharmaCompanies.remove(account);\n    emit PharmaRemoved(account);\n  }\n}\n",
  "sourcePath": "/home/robert/Documents/Udacity/Blockchain/Project6/DrugSupplyChain/contracts/accesscontrol/PharmaceuticalCompanyRole.sol",
  "compiler": {
    "name": "solc",
    "version": "0.5.0+commit.1d4f565a.Emscripten.clang"
  },
  "schemaVersion": "3.0.2",
  "updatedAt": "2019-04-03T23:19:24.033Z",
  "devdoc": {
    "methods": {}
  },
  "userdoc": {
    "methods": {}
  }
}