{
  "contractName": "PharmacyRole",
  "abi": [
    {
      "anonymous": false,
      "inputs": [
        {
          "indexed": true,
          "name": "account",
          "type": "address"
        }
      ],
      "name": "PharmacyAdded",
      "type": "event"
    },
    {
      "anonymous": false,
      "inputs": [
        {
          "indexed": true,
          "name": "account",
          "type": "address"
        }
      ],
      "name": "PharmacyRemoved",
      "type": "event"
    },
    {
      "constant": true,
      "inputs": [
        {
          "name": "account",
          "type": "address"
        }
      ],
      "name": "isPharmacy",
      "outputs": [
        {
          "name": "",
          "type": "bool"
        }
      ],
      "payable": false,
      "stateMutability": "view",
      "type": "function"
    },
    {
      "constant": false,
      "inputs": [
        {
          "name": "account",
          "type": "address"
        }
      ],
      "name": "addPharmacy",
      "outputs": [],
      "payable": false,
      "stateMutability": "nonpayable",
      "type": "function"
    },
    {
      "constant": false,
      "inputs": [],
      "name": "removePharmacy",
      "outputs": [],
      "payable": false,
      "stateMutability": "nonpayable",
      "type": "function"
    }
  ],
  "bytecode": "0x608060405234801561001057600080fd5b50610434806100206000396000f3fe608060405260043610610057576000357c0100000000000000000000000000000000000000000000000000000000900463ffffffff168063afd675f81461005c578063dfb0fda3146100ad578063f09b07bf14610116575b600080fd5b34801561006857600080fd5b506100ab6004803603602081101561007f57600080fd5b81019080803573ffffffffffffffffffffffffffffffffffffffff16906020019092919050505061012d565b005b3480156100b957600080fd5b506100fc600480360360208110156100d057600080fd5b81019080803573ffffffffffffffffffffffffffffffffffffffff169060200190929190505050610139565b604051808215151515815260200191505060405180910390f35b34801561012257600080fd5b5061012b610156565b005b61013681610161565b50565b600061014f8260006101bb90919063ffffffff16565b9050919050565b61015f3361024f565b565b6101758160006102a990919063ffffffff16565b8073ffffffffffffffffffffffffffffffffffffffff167fe6c049ab5a3c2ae523452b89e43795966fec2f89b7bf443d91781a7c696d301760405160405180910390a250565b60008073ffffffffffffffffffffffffffffffffffffffff168273ffffffffffffffffffffffffffffffffffffffff16141515156101f857600080fd5b8260000160008373ffffffffffffffffffffffffffffffffffffffff1673ffffffffffffffffffffffffffffffffffffffff16815260200190815260200160002060009054906101000a900460ff16905092915050565b61026381600061035990919063ffffffff16565b8073ffffffffffffffffffffffffffffffffffffffff167f46520b63a5e163f23aef94d996e90fbbec9b8959d1dd37aeb9bcb5a3a20ac5c960405160405180910390a250565b600073ffffffffffffffffffffffffffffffffffffffff168173ffffffffffffffffffffffffffffffffffffffff16141515156102e557600080fd5b6102ef82826101bb565b1515156102fb57600080fd5b60018260000160008373ffffffffffffffffffffffffffffffffffffffff1673ffffffffffffffffffffffffffffffffffffffff16815260200190815260200160002060006101000a81548160ff0219169083151502179055505050565b600073ffffffffffffffffffffffffffffffffffffffff168173ffffffffffffffffffffffffffffffffffffffff161415151561039557600080fd5b61039f82826101bb565b15156103aa57600080fd5b60008260000160008373ffffffffffffffffffffffffffffffffffffffff1673ffffffffffffffffffffffffffffffffffffffff16815260200190815260200160002060006101000a81548160ff021916908315150217905550505056fea165627a7a72305820a87042b32f40bcf5db7d6045242f6a8ac0767ccfaeda16ef406700037deafa8a0029",
  "source": "pragma solidity >=0.4.24;\n\n// Import the library 'Roles'\nimport \"./Roles.sol\";\n\n// Define a contract 'PharmacyRole' to manage this role - add, remove, check\ncontract PharmacyRole {\n  using Roles for Roles.Role;\n\n  // Define 2 events, one for Adding, and other for Removing\n  event PharmacyAdded(address indexed account);\n  event PharmacyRemoved(address indexed account);\n\n  // Define a struct 'pharmacies' by inheriting from 'Roles' library, struct Role\n  Roles.Role private pharmacies;\n\n  // In the constructor make the address that deploys this contract the 1st Pharmacy\n  /*constructor() public {\n      _addPharmacy(msg.sender);\n  }*/\n\n  // Define a modifier that checks to see if msg.sender has the appropriate role\n  modifier onlyPharmacies() {\n      require(isPharmacy(msg.sender));\n      _;\n  }\n\n  // Define a function 'isPharmacy' to check this role\n  function isPharmacy(address account) public view returns (bool) {\n      return pharmacies.has(account);\n  }\n\n  // Define a function 'addPharmacy' that adds this role\n  function addPharmacy(address account) public {\n      _addPharmacy(account);\n  }\n\n  // Define a function 'removePharmacy' to renounce this role\n  function removePharmacy() public {\n      _removePharmacy(msg.sender);\n  }\n\n  // Define an internal function '_addPharmacy' to add this role, called by 'addPharmacy'\n  function _addPharmacy(address account) internal {\n      // \"using Roles for Roles.Role\" statement enables the following syntactic sugar\n      pharmacies.add(account);\n      emit PharmacyAdded(account);\n  }\n\n  // Define an internal function '_removePharmacy' to remove this role, called by 'removePharmacy'\n  function _removePharmacy(address account) internal {\n      pharmacies.remove(account);\n      emit PharmacyRemoved(account);\n  }\n}\n",
  "sourcePath": "/home/robert/Documents/Udacity/Blockchain/Project6/DrugSupplyChain/contracts/accesscontrol/PharmacyRole.sol",
  "compiler": {
    "name": "solc",
    "version": "0.5.0+commit.1d4f565a.Emscripten.clang"
  },
  "schemaVersion": "3.0.2",
  "updatedAt": "2019-04-03T23:19:24.034Z",
  "devdoc": {
    "methods": {}
  },
  "userdoc": {
    "methods": {}
  }
}