{
  "contractName": "Utils",
  "abi": [
    {
      "constant": true,
      "inputs": [
        {
          "name": "",
          "type": "bytes32"
        }
      ],
      "name": "hashedCoords",
      "outputs": [
        {
          "name": "",
          "type": "uint256"
        }
      ],
      "payable": false,
      "stateMutability": "view",
      "type": "function"
    },
    {
      "constant": false,
      "inputs": [
        {
          "name": "_name",
          "type": "string"
        },
        {
          "name": "_activeIngredient",
          "type": "string"
        },
        {
          "name": "_upc",
          "type": "uint256"
        }
      ],
      "name": "storeHashedCoords",
      "outputs": [],
      "payable": false,
      "stateMutability": "nonpayable",
      "type": "function"
    },
    {
      "constant": true,
      "inputs": [
        {
          "name": "_name",
          "type": "string"
        },
        {
          "name": "_activeIngredient",
          "type": "string"
        }
      ],
      "name": "checkIfDrugExists",
      "outputs": [
        {
          "name": "",
          "type": "bool"
        }
      ],
      "payable": false,
      "stateMutability": "view",
      "type": "function"
    },
    {
      "constant": true,
      "inputs": [
        {
          "name": "_a",
          "type": "string"
        },
        {
          "name": "_b",
          "type": "string"
        }
      ],
      "name": "compareStrings",
      "outputs": [
        {
          "name": "",
          "type": "bool"
        }
      ],
      "payable": false,
      "stateMutability": "pure",
      "type": "function"
    }
  ],
  "bytecode": "0x608060405234801561001057600080fd5b50610b1c806100206000396000f3fe608060405260043610610062576000357c0100000000000000000000000000000000000000000000000000000000900463ffffffff1680630175bab1146100675780633e8a1d39146101de5780634f13a99c1461022d578063bed34bba14610396575b600080fd5b34801561007357600080fd5b506101c46004803603604081101561008a57600080fd5b81019080803590602001906401000000008111156100a757600080fd5b8201836020820111156100b957600080fd5b803590602001918460018302840111640100000000831117156100db57600080fd5b91908080601f016020809104026020016040519081016040528093929190818152602001838380828437600081840152601f19601f8201169050808301925050505050505091929192908035906020019064010000000081111561013e57600080fd5b82018360208201111561015057600080fd5b8035906020019184600183028401116401000000008311171561017257600080fd5b91908080601f016020809104026020016040519081016040528093929190818152602001838380828437600081840152601f19601f82011690508083019250505050505050919291929050505061050d565b604051808215151515815260200191505060405180910390f35b3480156101ea57600080fd5b506102176004803603602081101561020157600080fd5b8101908080359060200190929190505050610555565b6040518082815260200191505060405180910390f35b34801561023957600080fd5b506103946004803603606081101561025057600080fd5b810190808035906020019064010000000081111561026d57600080fd5b82018360208201111561027f57600080fd5b803590602001918460018302840111640100000000831117156102a157600080fd5b91908080601f016020809104026020016040519081016040528093929190818152602001838380828437600081840152601f19601f8201169050808301925050505050505091929192908035906020019064010000000081111561030457600080fd5b82018360208201111561031657600080fd5b8035906020019184600183028401116401000000008311171561033857600080fd5b91908080601f016020809104026020016040519081016040528093929190818152602001838380828437600081840152601f19601f8201169050808301925050505050505091929192908035906020019092919050505061056d565b005b3480156103a257600080fd5b506104f3600480360360408110156103b957600080fd5b81019080803590602001906401000000008111156103d657600080fd5b8201836020820111156103e857600080fd5b8035906020019184600183028401116401000000008311171561040a57600080fd5b91908080601f016020809104026020016040519081016040528093929190818152602001838380828437600081840152601f19601f8201169050808301925050505050505091929192908035906020019064010000000081111561046d57600080fd5b82018360208201111561047f57600080fd5b803590602001918460018302840111640100000000831117156104a157600080fd5b91908080601f016020809104026020016040519081016040528093929190818152602001838380828437600081840152601f19601f82011690508083019250505050505050919291929050505061059f565b604051808215151515815260200191505060405180910390f35b6000606061051b8484610692565b905060008060008380519060200120815260200190815260200160002054111561054957600191505061054f565b60009150505b92915050565b60006020528060005260406000206000915090505481565b60606105798484610692565b905081600080838051906020012081526020019081526020016000208190555050505050565b6000816040516020018082805190602001908083835b6020831015156105da57805182526020820191506020810190506020830392506105b5565b6001836020036101000a03801982511681845116808217855250505050505090500191505060405160208183030381529060405280519060200120836040516020018082805190602001908083835b60208310151561064e5780518252602082019150602081019050602083039250610629565b6001836020036101000a0380198251168184511680821785525050505050509050019150506040516020818303038152906040528051906020012014905092915050565b60606106d183836020604051908101604052806000815250602060405190810160405280600081525060206040519081016040528060008152506106d9565b905092915050565b6060808690506060869050606086905060608690506060869050606081518351855187518951010101016040519080825280601f01601f1916602001820160405280156107355781602001600182028038833980820191505090505b5090506060819050600080905060008090505b88518110156107fb57888181518110151561075f57fe5b9060200101517f010000000000000000000000000000000000000000000000000000000000000090047f01000000000000000000000000000000000000000000000000000000000000000283838060010194508151811015156107be57fe5b9060200101907effffffffffffffffffffffffffffffffffffffffffffffffffffffffffffff1916908160001a9053508080600101915050610748565b600090505b87518110156108b357878181518110151561081757fe5b9060200101517f010000000000000000000000000000000000000000000000000000000000000090047f010000000000000000000000000000000000000000000000000000000000000002838380600101945081518110151561087657fe5b9060200101907effffffffffffffffffffffffffffffffffffffffffffffffffffffffffffff1916908160001a9053508080600101915050610800565b600090505b865181101561096b5786818151811015156108cf57fe5b9060200101517f010000000000000000000000000000000000000000000000000000000000000090047f010000000000000000000000000000000000000000000000000000000000000002838380600101945081518110151561092e57fe5b9060200101907effffffffffffffffffffffffffffffffffffffffffffffffffffffffffffff1916908160001a90535080806001019150506108b8565b600090505b8551811015610a2357858181518110151561098757fe5b9060200101517f010000000000000000000000000000000000000000000000000000000000000090047f01000000000000000000000000000000000000000000000000000000000000000283838060010194508151811015156109e657fe5b9060200101907effffffffffffffffffffffffffffffffffffffffffffffffffffffffffffff1916908160001a9053508080600101915050610970565b600090505b8451811015610adb578481815181101515610a3f57fe5b9060200101517f010000000000000000000000000000000000000000000000000000000000000090047f0100000000000000000000000000000000000000000000000000000000000000028383806001019450815181101515610a9e57fe5b9060200101907effffffffffffffffffffffffffffffffffffffffffffffffffffffffffffff1916908160001a9053508080600101915050610a28565b8299505050505050505050509594505050505056fea165627a7a72305820ce1349c9e3333a37f977b680106074aafca9aa5625ab2f3d3db8ceb6105f6d490029",
  "source": "pragma solidity >=0.4.24;\n\ncontract Utils {\n    // functions to manually concatenate strings:\n    // https://github.com/oraclize/ethereum-api/blob/master/oraclizeAPI_0.5.sol\n\n    // store the hash value concatenated coordinates\n    mapping(bytes32 => uint256) public hashedCoords;\n\n    function strConcat(string memory _a, string memory _b, string memory _c, string memory _d, string memory _e) internal pure returns (string memory) {\n        bytes memory _ba = bytes(_a);\n        bytes memory _bb = bytes(_b);\n        bytes memory _bc = bytes(_c);\n        bytes memory _bd = bytes(_d);\n        bytes memory _be = bytes(_e);\n        string memory abcde = new string(_ba.length + _bb.length + _bc.length + _bd.length + _be.length);\n        bytes memory babcde = bytes(abcde);\n        uint k = 0;\n        uint i;\n        for (i = 0; i < _ba.length; i++) babcde[k++] = _ba[i];\n        for (i = 0; i < _bb.length; i++) babcde[k++] = _bb[i];\n        for (i = 0; i < _bc.length; i++) babcde[k++] = _bc[i];\n        for (i = 0; i < _bd.length; i++) babcde[k++] = _bd[i];\n        for (i = 0; i < _be.length; i++) babcde[k++] = _be[i];\n        return string(babcde);\n    }\n\n    function strConcat(string memory _a, string memory _b, string memory _c, string memory _d) internal pure returns (string memory) {\n        return strConcat(_a, _b, _c, _d, \"\");\n    }\n\n    function strConcat(string memory _a, string memory _b, string memory _c) internal pure returns (string memory) {\n        return strConcat(_a, _b, _c, \"\", \"\");\n    }\n\n    function strConcat(string memory _a, string memory _b) internal pure returns (string memory) {\n        return strConcat(_a, _b, \"\", \"\", \"\");\n    }\n\n    function storeHashedCoords(string memory _name, string memory _activeIngredient, uint _upc) public {\n        string memory concatCoords = strConcat(_name, _activeIngredient);\n        hashedCoords[keccak256(bytes(concatCoords))] = _upc;\n    }\n    /*function storeHashedCoords(string memory _name, uint _upc) public {\n        //string memory concatCoords = strConcat(_name, _activeIngredient);\n        hashedCoords[keccak256(bytes(_name))] = _upc;\n    }*/\n\n    // check if the drug with the given coords already\n    function checkIfDrugExists(string memory _name, string memory _activeIngredient) public view returns(bool) {\n        string memory concatCoords = strConcat(_name, _activeIngredient);\n        if (hashedCoords[keccak256(bytes(concatCoords))] > 0) {\n            return true;\n        } else {\n            return false;\n        }\n    }\n\n    /*function checkIfDrugExists(string memory _name) public view returns(bool) {\n        if (hashedCoords[keccak256(bytes(_name))] > 0) {\n            return true;\n        } else {\n            return false;\n        }\n    }*/\n\n    // compare strings\n    function compareStrings(string memory _a, string memory _b) public pure returns(bool) {\n        return (keccak256(abi.encodePacked(_a)) == keccak256(abi.encodePacked(_b)));\n    }\n\n}\n",
  "sourcePath": "/home/robert/Documents/Udacity/Blockchain/Project6/DrugSupplyChain/contracts/base/Utils.sol",
  "compiler": {
    "name": "solc",
    "version": "0.5.0+commit.1d4f565a.Emscripten.clang"
  },
  "schemaVersion": "3.0.2",
  "updatedAt": "2019-04-03T23:19:24.050Z",
  "devdoc": {
    "methods": {}
  },
  "userdoc": {
    "methods": {}
  }
}