{
  "contractName": "WholeSaleCompanyRole",
  "abi": [
    {
      "anonymous": false,
      "inputs": [
        {
          "indexed": true,
          "name": "account",
          "type": "address"
        }
      ],
      "name": "WholeSaleCompanyAdded",
      "type": "event"
    },
    {
      "anonymous": false,
      "inputs": [
        {
          "indexed": true,
          "name": "account",
          "type": "address"
        }
      ],
      "name": "WholeSaleCompanyRemoved",
      "type": "event"
    },
    {
      "constant": true,
      "inputs": [
        {
          "name": "account",
          "type": "address"
        }
      ],
      "name": "isWholeSaleCompany",
      "outputs": [
        {
          "name": "",
          "type": "bool"
        }
      ],
      "payable": false,
      "stateMutability": "view",
      "type": "function"
    },
    {
      "constant": false,
      "inputs": [
        {
          "name": "account",
          "type": "address"
        }
      ],
      "name": "addWholeSaleCompany",
      "outputs": [],
      "payable": false,
      "stateMutability": "nonpayable",
      "type": "function"
    },
    {
      "constant": false,
      "inputs": [],
      "name": "removeWholeSaleCompany",
      "outputs": [],
      "payable": false,
      "stateMutability": "nonpayable",
      "type": "function"
    }
  ],
  "bytecode": "0x608060405234801561001057600080fd5b50610434806100206000396000f3fe608060405260043610610057576000357c0100000000000000000000000000000000000000000000000000000000900463ffffffff1680630170a2721461005c578063580b3ec0146100735780636cd5c75c146100dc575b600080fd5b34801561006857600080fd5b5061007161012d565b005b34801561007f57600080fd5b506100c26004803603602081101561009657600080fd5b81019080803573ffffffffffffffffffffffffffffffffffffffff169060200190929190505050610138565b604051808215151515815260200191505060405180910390f35b3480156100e857600080fd5b5061012b600480360360208110156100ff57600080fd5b81019080803573ffffffffffffffffffffffffffffffffffffffff169060200190929190505050610155565b005b61013633610161565b565b600061014e8260006101bb90919063ffffffff16565b9050919050565b61015e8161024f565b50565b6101758160006102a990919063ffffffff16565b8073ffffffffffffffffffffffffffffffffffffffff167f1f741da34e2a068ea80068f60a754dc428d290b45a213388be9a10ec7e7ad5e460405160405180910390a250565b60008073ffffffffffffffffffffffffffffffffffffffff168273ffffffffffffffffffffffffffffffffffffffff16141515156101f857600080fd5b8260000160008373ffffffffffffffffffffffffffffffffffffffff1673ffffffffffffffffffffffffffffffffffffffff16815260200190815260200160002060009054906101000a900460ff16905092915050565b61026381600061035890919063ffffffff16565b8073ffffffffffffffffffffffffffffffffffffffff167faf2df1859ef5c2add3a623a73a0f17cc2c499b218acc040e0c7ab2635550e01160405160405180910390a250565b600073ffffffffffffffffffffffffffffffffffffffff168173ffffffffffffffffffffffffffffffffffffffff16141515156102e557600080fd5b6102ef82826101bb565b15156102fa57600080fd5b60008260000160008373ffffffffffffffffffffffffffffffffffffffff1673ffffffffffffffffffffffffffffffffffffffff16815260200190815260200160002060006101000a81548160ff0219169083151502179055505050565b600073ffffffffffffffffffffffffffffffffffffffff168173ffffffffffffffffffffffffffffffffffffffff161415151561039457600080fd5b61039e82826101bb565b1515156103aa57600080fd5b60018260000160008373ffffffffffffffffffffffffffffffffffffffff1673ffffffffffffffffffffffffffffffffffffffff16815260200190815260200160002060006101000a81548160ff021916908315150217905550505056fea165627a7a72305820b79554489032081ab4faf9f41e96e9e555bc9d258da3be7bbd096d44021d915c0029",
  "source": "pragma solidity >=0.4.24;\n\n// Import the library 'Roles'\nimport \"./Roles.sol\";\n\n// Define a contract 'WholeSaleCompanyRole' to manage this role - add, remove, check\ncontract WholeSaleCompanyRole {\n  using Roles for Roles.Role;\n\n  // Define 2 events, one for Adding, and other for Removing\n  event WholeSaleCompanyAdded(address indexed account);\n  event WholeSaleCompanyRemoved(address indexed account);\n\n  // Define a struct 'wholeSaleCompanies' by inheriting from 'Roles' library, struct Role\n  Roles.Role private wholeSaleCompanies;\n\n  // In the constructor make the address that deploys this contract the 1st wholeSaleCompany\n  /*constructor() public {\n      _addWholeSaleCompany(msg.sender);\n  }*/\n\n  // Define a modifier that checks to see if msg.sender has the appropriate role\n  modifier onlyWholeSaleCompanies() {\n      require(isWholeSaleCompany(msg.sender));\n      _;\n  }\n\n  // Define a function 'isWholeSaleCompany' to check this role\n  function isWholeSaleCompany(address account) public view returns (bool) {\n      return wholeSaleCompanies.has(account);\n  }\n\n  // Define a function 'addWholeSaleCompany' that adds this role\n  function addWholeSaleCompany(address account) public {\n      _addWholeSaleCompany(account);\n  }\n\n  // Define a function 'removeMVO' to renounce this role\n  function removeWholeSaleCompany() public {\n      _removeWholeSaleCompany(msg.sender);\n  }\n\n  // Define an internal function '_addWholeSaleCompany' to add this role, called by 'addWholeSaleCompany'\n  function _addWholeSaleCompany(address account) internal {\n      // \"using Roles for Roles.Role\" statement enables the following syntactic sugar\n      wholeSaleCompanies.add(account);\n      emit WholeSaleCompanyAdded(account);\n  }\n\n  // Define an internal function '_removeWholeSaleCompany' to remove this role, called by 'removeWholeSaleCompany'\n  function _removeWholeSaleCompany(address account) internal {\n      wholeSaleCompanies.remove(account);\n      emit WholeSaleCompanyRemoved(account);\n  }\n}\n",
  "sourcePath": "/home/robert/Documents/Udacity/Blockchain/Project6/DrugSupplyChain/contracts/accesscontrol/WholeSaleCompanyRole.sol",
  "compiler": {
    "name": "solc",
    "version": "0.5.0+commit.1d4f565a.Emscripten.clang"
  },
  "schemaVersion": "3.0.2",
  "updatedAt": "2019-04-03T23:19:24.038Z",
  "devdoc": {
    "methods": {}
  },
  "userdoc": {
    "methods": {}
  }
}